{
  "contractName": "ItemMarketPlace",
  "abi": [
    {
      "inputs": [],
      "stateMutability": "nonpayable",
      "type": "constructor"
    },
    {
      "inputs": [],
      "name": "ItemHasOwner",
      "type": "error"
    },
    {
      "inputs": [],
      "name": "OnlyOwner",
      "type": "error"
    },
    {
      "inputs": [
        {
          "internalType": "bytes16",
          "name": "ItemId",
          "type": "bytes16"
        },
        {
          "internalType": "bytes32",
          "name": "proof",
          "type": "bytes32"
        }
      ],
      "name": "purchaseItem",
      "outputs": [],
      "stateMutability": "payable",
      "type": "function",
      "payable": true
    },
    {
      "inputs": [
        {
          "internalType": "address",
          "name": "newOwner",
          "type": "address"
        }
      ],
      "name": "transferOwnership",
      "outputs": [],
      "stateMutability": "nonpayable",
      "type": "function"
    },
    {
      "inputs": [],
      "name": "getItemCount",
      "outputs": [
        {
          "internalType": "uint256",
          "name": "",
          "type": "uint256"
        }
      ],
      "stateMutability": "view",
      "type": "function",
      "constant": true
    },
    {
      "inputs": [
        {
          "internalType": "uint256",
          "name": "index",
          "type": "uint256"
        }
      ],
      "name": "getItemHashAtIndex",
      "outputs": [
        {
          "internalType": "bytes32",
          "name": "",
          "type": "bytes32"
        }
      ],
      "stateMutability": "view",
      "type": "function",
      "constant": true
    },
    {
      "inputs": [
        {
          "internalType": "bytes32",
          "name": "ItemHash",
          "type": "bytes32"
        }
      ],
      "name": "getItemByHash",
      "outputs": [
        {
          "components": [
            {
              "internalType": "uint256",
              "name": "id",
              "type": "uint256"
            },
            {
              "internalType": "uint256",
              "name": "price",
              "type": "uint256"
            },
            {
              "internalType": "bytes32",
              "name": "proof",
              "type": "bytes32"
            },
            {
              "internalType": "address",
              "name": "owner",
              "type": "address"
            },
            {
              "internalType": "enum ItemMarketPlace.State",
              "name": "state",
              "type": "uint8"
            }
          ],
          "internalType": "struct ItemMarketPlace.Item",
          "name": "",
          "type": "tuple"
        }
      ],
      "stateMutability": "view",
      "type": "function",
      "constant": true
    },
    {
      "inputs": [],
      "name": "getContractOwner",
      "outputs": [
        {
          "internalType": "address",
          "name": "",
          "type": "address"
        }
      ],
      "stateMutability": "view",
      "type": "function",
      "constant": true
    }
  ],
  "bytecode": "0x608060405234801561001057600080fd5b506100203361002560201b60201c565b610069565b80600360006101000a81548173ffffffffffffffffffffffffffffffffffffffff021916908373ffffffffffffffffffffffffffffffffffffffff16021790555050565b610a94806100786000396000f3fe6080604052600436106100555760003560e01c8063234780a71461005a578063442890d514610097578063592f9006146100c25780637749cf23146100de578063d5e7cbb714610109578063f2fde38b14610146575b600080fd5b34801561006657600080fd5b50610081600480360381019061007c91906105f9565b61016f565b60405161008e919061076e565b60405180910390f35b3480156100a357600080fd5b506100ac61024a565b6040516100b99190610798565b60405180910390f35b6100dc60048036038101906100d7919061080b565b610274565b005b3480156100ea57600080fd5b506100f3610414565b604051610100919061085a565b60405180910390f35b34801561011557600080fd5b50610130600480360381019061012b91906108a1565b61041e565b60405161013d91906108dd565b60405180910390f35b34801561015257600080fd5b5061016d60048036038101906101689190610924565b61043b565b005b610177610564565b6000808381526020019081526020016000206040518060a00160405290816000820154815260200160018201548152602001600282015481526020016003820160009054906101000a900473ffffffffffffffffffffffffffffffffffffffff1673ffffffffffffffffffffffffffffffffffffffff1673ffffffffffffffffffffffffffffffffffffffff1681526020016003820160149054906101000a900460ff16600281111561022d5761022c61068f565b5b600281111561023f5761023e61068f565b5b815250509050919050565b6000600360009054906101000a900473ffffffffffffffffffffffffffffffffffffffff16905090565b600082336040516020016102899291906109ba565b6040516020818303038152906040528051906020012090506102aa816104b3565b156102e1576040517f2ac1a44e00000000000000000000000000000000000000000000000000000000815260040160405180910390fd5b6000600260008154809291906102f690610a15565b9190505590508160016000838152602001908152602001600020819055506040518060a001604052808281526020013481526020018481526020013373ffffffffffffffffffffffffffffffffffffffff168152602001600060028111156103615761036061068f565b5b81525060008084815260200190815260200160002060008201518160000155602082015181600101556040820151816002015560608201518160030160006101000a81548173ffffffffffffffffffffffffffffffffffffffff021916908373ffffffffffffffffffffffffffffffffffffffff16021790555060808201518160030160146101000a81548160ff021916908360028111156104065761040561068f565b5b021790555090505050505050565b6000600254905090565b600060016000838152602001908152602001600020549050919050565b61044361024a565b73ffffffffffffffffffffffffffffffffffffffff163373ffffffffffffffffffffffffffffffffffffffff16146104a7576040517f5fc483c500000000000000000000000000000000000000000000000000000000815260040160405180910390fd5b6104b081610520565b50565b60003373ffffffffffffffffffffffffffffffffffffffff1660008084815260200190815260200160002060030160009054906101000a900473ffffffffffffffffffffffffffffffffffffffff1673ffffffffffffffffffffffffffffffffffffffff16149050919050565b80600360006101000a81548173ffffffffffffffffffffffffffffffffffffffff021916908373ffffffffffffffffffffffffffffffffffffffff16021790555050565b6040518060a00160405280600081526020016000815260200160008019168152602001600073ffffffffffffffffffffffffffffffffffffffff168152602001600060028111156105b8576105b761068f565b5b81525090565b600080fd5b6000819050919050565b6105d6816105c3565b81146105e157600080fd5b50565b6000813590506105f3816105cd565b92915050565b60006020828403121561060f5761060e6105be565b5b600061061d848285016105e4565b91505092915050565b6000819050919050565b61063981610626565b82525050565b610648816105c3565b82525050565b600073ffffffffffffffffffffffffffffffffffffffff82169050919050565b60006106798261064e565b9050919050565b6106898161066e565b82525050565b7f4e487b7100000000000000000000000000000000000000000000000000000000600052602160045260246000fd5b600381106106cf576106ce61068f565b5b50565b60008190506106e0826106be565b919050565b60006106f0826106d2565b9050919050565b610700816106e5565b82525050565b60a08201600082015161071c6000850182610630565b50602082015161072f6020850182610630565b506040820151610742604085018261063f565b5060608201516107556060850182610680565b50608082015161076860808501826106f7565b50505050565b600060a0820190506107836000830184610706565b92915050565b6107928161066e565b82525050565b60006020820190506107ad6000830184610789565b92915050565b60007fffffffffffffffffffffffffffffffff0000000000000000000000000000000082169050919050565b6107e8816107b3565b81146107f357600080fd5b50565b600081359050610805816107df565b92915050565b60008060408385031215610822576108216105be565b5b6000610830858286016107f6565b9250506020610841858286016105e4565b9150509250929050565b61085481610626565b82525050565b600060208201905061086f600083018461084b565b92915050565b61087e81610626565b811461088957600080fd5b50565b60008135905061089b81610875565b92915050565b6000602082840312156108b7576108b66105be565b5b60006108c58482850161088c565b91505092915050565b6108d7816105c3565b82525050565b60006020820190506108f260008301846108ce565b92915050565b6109018161066e565b811461090c57600080fd5b50565b60008135905061091e816108f8565b92915050565b60006020828403121561093a576109396105be565b5b60006109488482850161090f565b91505092915050565b6000819050919050565b61096c610967826107b3565b610951565b82525050565b60008160601b9050919050565b600061098a82610972565b9050919050565b600061099c8261097f565b9050919050565b6109b46109af8261066e565b610991565b82525050565b60006109c6828561095b565b6010820191506109d682846109a3565b6014820191508190509392505050565b7f4e487b7100000000000000000000000000000000000000000000000000000000600052601160045260246000fd5b6000610a2082610626565b91507fffffffffffffffffffffffffffffffffffffffffffffffffffffffffffffffff821415610a5357610a526109e6565b5b60018201905091905056fea2646970667358221220ea2d92418e6b6d520e7e0075d5d28e72a072e18690127638142ebeb20dbdb11c64736f6c63430008090033",
  "immutableReferences": {},
  "source": "// SPDX-License-Identifier: MIT\r\npragma solidity >=0.4.22 <0.9.0;\r\n\r\ncontract ItemMarketPlace {\r\n    enum State {\r\n        Purchased,\r\n        Activated,\r\n        Deactivated\r\n    }\r\n\r\n    struct Item {\r\n        uint id;\r\n        uint price;\r\n        bytes32 proof;\r\n        address owner;\r\n        State state;\r\n    } \r\n\r\n    mapping(bytes32 => Item) private ownedItems; //ItemHash => Item Data\r\n    mapping(uint => bytes32) private ownedItemHash; //ItemID => ItemHash\r\n\r\n    uint private totalOwnedItems;\r\n\r\n    address payable private owner;\r\n\r\n    constructor() {\r\n        setContractOwner(msg.sender);\r\n    }\r\n\r\n    /// This item has already been purchased.\r\n    error ItemHasOwner();\r\n\r\n    /// Only the owner has access to this method.\r\n    error OnlyOwner();\r\n\r\n    modifier onlyOwner() {\r\n        if(msg.sender != getContractOwner()){\r\n            revert OnlyOwner();\r\n        }\r\n        _;\r\n    }\r\n\r\n    function purchaseItem(\r\n        bytes16 ItemId,\r\n        bytes32 proof)\r\n        external\r\n        payable\r\n    {\r\n        bytes32 ItemHash = keccak256(abi.encodePacked(ItemId, msg.sender));\r\n        if(hasItemOwnership(ItemHash)) {\r\n            revert ItemHasOwner();\r\n        }\r\n        uint id = totalOwnedItems++;\r\n        ownedItemHash[id] = ItemHash;\r\n        ownedItems[ItemHash] = Item({id: id, price: msg.value, proof: proof, owner: msg.sender, state: State.Purchased});\r\n    }\r\n\r\n    function transferOwnership(address newOwner) \r\n        external\r\n        onlyOwner\r\n    {\r\n        setContractOwner(newOwner);\r\n    }\r\n\r\n    function getItemCount()\r\n        external\r\n        view\r\n        returns (uint)\r\n    {\r\n        return totalOwnedItems;\r\n    }\r\n\r\n    function getItemHashAtIndex(uint index)\r\n        external\r\n        view\r\n        returns (bytes32)\r\n    {\r\n        return ownedItemHash[index];\r\n    }\r\n\r\n    function getItemByHash(bytes32 ItemHash)\r\n        external\r\n        view\r\n        returns (Item memory)\r\n    {\r\n        return ownedItems[ItemHash];\r\n    }\r\n\r\n    function getContractOwner() \r\n        public\r\n        view\r\n        returns (address)\r\n    {\r\n        return owner;\r\n    }\r\n\r\n    function setContractOwner(address newOwner) private {\r\n        owner = payable(newOwner);\r\n    }\r\n\r\n    function hasItemOwnership(bytes32 ItemHash)\r\n        private\r\n        view\r\n        returns (bool)\r\n    {\r\n        return ownedItems[ItemHash].owner == msg.sender;\r\n    }\r\n\r\n}",
  "sourcePath": "D:\\Major\\marketplace-eth\\contracts\\itemMarketplace.sol",
  "compiler": {
    "name": "solc",
    "version": "0.8.9+commit.e5eed63a.Emscripten.clang"
  },
  "schemaVersion": "3.4.3",
  "updatedAt": "2021-12-29T17:39:21.780Z",
  "networkType": "ethereum",
  "devdoc": {
    "kind": "dev",
    "methods": {},
    "version": 1
  },
  "userdoc": {
    "errors": {
      "ItemHasOwner()": [
        {
          "notice": "This item has already been purchased."
        }
      ],
      "OnlyOwner()": [
        {
          "notice": "Only the owner has access to this method."
        }
      ]
    },
    "kind": "user",
    "methods": {},
    "version": 1
  }
}