{
  "contractName": "ItemMarketPlace",
  "abi": [
    {
      "inputs": [],
      "stateMutability": "nonpayable",
      "type": "constructor"
    },
    {
      "inputs": [],
      "name": "InvalidState",
      "type": "error"
    },
    {
      "inputs": [],
      "name": "ItemHasOwner",
      "type": "error"
    },
    {
      "inputs": [],
      "name": "ItemIsNotCreated",
      "type": "error"
    },
    {
      "inputs": [],
      "name": "OnlyOwner",
      "type": "error"
    },
    {
      "inputs": [
        {
          "internalType": "bytes16",
          "name": "ItemId",
          "type": "bytes16"
        },
        {
          "internalType": "bytes32",
          "name": "proof",
          "type": "bytes32"
        }
      ],
      "name": "purchaseItem",
      "outputs": [],
      "stateMutability": "payable",
      "type": "function",
      "payable": true
    },
    {
      "inputs": [
        {
          "internalType": "bytes32",
          "name": "itemHash",
          "type": "bytes32"
        }
      ],
      "name": "activateItem",
      "outputs": [],
      "stateMutability": "nonpayable",
      "type": "function"
    },
    {
      "inputs": [
        {
          "internalType": "address",
          "name": "newOwner",
          "type": "address"
        }
      ],
      "name": "transferOwnership",
      "outputs": [],
      "stateMutability": "nonpayable",
      "type": "function"
    },
    {
      "inputs": [],
      "name": "getItemCount",
      "outputs": [
        {
          "internalType": "uint256",
          "name": "",
          "type": "uint256"
        }
      ],
      "stateMutability": "view",
      "type": "function",
      "constant": true
    },
    {
      "inputs": [
        {
          "internalType": "uint256",
          "name": "index",
          "type": "uint256"
        }
      ],
      "name": "getItemHashAtIndex",
      "outputs": [
        {
          "internalType": "bytes32",
          "name": "",
          "type": "bytes32"
        }
      ],
      "stateMutability": "view",
      "type": "function",
      "constant": true
    },
    {
      "inputs": [
        {
          "internalType": "bytes32",
          "name": "ItemHash",
          "type": "bytes32"
        }
      ],
      "name": "getItemByHash",
      "outputs": [
        {
          "components": [
            {
              "internalType": "uint256",
              "name": "id",
              "type": "uint256"
            },
            {
              "internalType": "uint256",
              "name": "price",
              "type": "uint256"
            },
            {
              "internalType": "bytes32",
              "name": "proof",
              "type": "bytes32"
            },
            {
              "internalType": "address",
              "name": "owner",
              "type": "address"
            },
            {
              "internalType": "enum ItemMarketPlace.State",
              "name": "state",
              "type": "uint8"
            }
          ],
          "internalType": "struct ItemMarketPlace.Item",
          "name": "",
          "type": "tuple"
        }
      ],
      "stateMutability": "view",
      "type": "function",
      "constant": true
    },
    {
      "inputs": [],
      "name": "getContractOwner",
      "outputs": [
        {
          "internalType": "address",
          "name": "",
          "type": "address"
        }
      ],
      "stateMutability": "view",
      "type": "function",
      "constant": true
    }
  ],
  "bytecode": "0x608060405234801561001057600080fd5b506100203361002560201b60201c565b610069565b80600360006101000a81548173ffffffffffffffffffffffffffffffffffffffff021916908373ffffffffffffffffffffffffffffffffffffffff16021790555050565b610ca7806100786000396000f3fe6080604052600436106100705760003560e01c80637749cf231161004e5780637749cf23146100f9578063acc5e27614610124578063d5e7cbb71461014d578063f2fde38b1461018a57610070565b8063234780a714610075578063442890d5146100b2578063592f9006146100dd575b600080fd5b34801561008157600080fd5b5061009c6004803603810190610097919061080c565b6101b3565b6040516100a99190610981565b60405180910390f35b3480156100be57600080fd5b506100c761028e565b6040516100d491906109ab565b60405180910390f35b6100f760048036038101906100f29190610a1e565b6102b8565b005b34801561010557600080fd5b5061010e610458565b60405161011b9190610a6d565b60405180910390f35b34801561013057600080fd5b5061014b6004803603810190610146919061080c565b610462565b005b34801561015957600080fd5b50610174600480360381019061016f9190610ab4565b6105c3565b6040516101819190610af0565b60405180910390f35b34801561019657600080fd5b506101b160048036038101906101ac9190610b37565b6105e0565b005b6101bb610777565b6000808381526020019081526020016000206040518060a00160405290816000820154815260200160018201548152602001600282015481526020016003820160009054906101000a900473ffffffffffffffffffffffffffffffffffffffff1673ffffffffffffffffffffffffffffffffffffffff1673ffffffffffffffffffffffffffffffffffffffff1681526020016003820160149054906101000a900460ff166002811115610271576102706108a2565b5b6002811115610283576102826108a2565b5b815250509050919050565b6000600360009054906101000a900473ffffffffffffffffffffffffffffffffffffffff16905090565b600082336040516020016102cd929190610bcd565b6040516020818303038152906040528051906020012090506102ee81610658565b15610325576040517f2ac1a44e00000000000000000000000000000000000000000000000000000000815260040160405180910390fd5b60006002600081548092919061033a90610c28565b9190505590508160016000838152602001908152602001600020819055506040518060a001604052808281526020013481526020018481526020013373ffffffffffffffffffffffffffffffffffffffff168152602001600060028111156103a5576103a46108a2565b5b81525060008084815260200190815260200160002060008201518160000155602082015181600101556040820151816002015560608201518160030160006101000a81548173ffffffffffffffffffffffffffffffffffffffff021916908373ffffffffffffffffffffffffffffffffffffffff16021790555060808201518160030160146101000a81548160ff0219169083600281111561044a576104496108a2565b5b021790555090505050505050565b6000600254905090565b61046a61028e565b73ffffffffffffffffffffffffffffffffffffffff163373ffffffffffffffffffffffffffffffffffffffff16146104ce576040517f5fc483c500000000000000000000000000000000000000000000000000000000815260040160405180910390fd5b6104d7816106c5565b61050d576040517feff99ffe00000000000000000000000000000000000000000000000000000000815260040160405180910390fd5b6000806000838152602001908152602001600020905060006002811115610537576105366108a2565b5b8160030160149054906101000a900460ff16600281111561055b5761055a6108a2565b5b14610592576040517fbaf3f0f700000000000000000000000000000000000000000000000000000000815260040160405180910390fd5b60018160030160146101000a81548160ff021916908360028111156105ba576105b96108a2565b5b02179055505050565b600060016000838152602001908152602001600020549050919050565b6105e861028e565b73ffffffffffffffffffffffffffffffffffffffff163373ffffffffffffffffffffffffffffffffffffffff161461064c576040517f5fc483c500000000000000000000000000000000000000000000000000000000815260040160405180910390fd5b61065581610733565b50565b60003373ffffffffffffffffffffffffffffffffffffffff1660008084815260200190815260200160002060030160009054906101000a900473ffffffffffffffffffffffffffffffffffffffff1673ffffffffffffffffffffffffffffffffffffffff16149050919050565b60008073ffffffffffffffffffffffffffffffffffffffff1660008084815260200190815260200160002060030160009054906101000a900473ffffffffffffffffffffffffffffffffffffffff1673ffffffffffffffffffffffffffffffffffffffff1614159050919050565b80600360006101000a81548173ffffffffffffffffffffffffffffffffffffffff021916908373ffffffffffffffffffffffffffffffffffffffff16021790555050565b6040518060a00160405280600081526020016000815260200160008019168152602001600073ffffffffffffffffffffffffffffffffffffffff168152602001600060028111156107cb576107ca6108a2565b5b81525090565b600080fd5b6000819050919050565b6107e9816107d6565b81146107f457600080fd5b50565b600081359050610806816107e0565b92915050565b600060208284031215610822576108216107d1565b5b6000610830848285016107f7565b91505092915050565b6000819050919050565b61084c81610839565b82525050565b61085b816107d6565b82525050565b600073ffffffffffffffffffffffffffffffffffffffff82169050919050565b600061088c82610861565b9050919050565b61089c81610881565b82525050565b7f4e487b7100000000000000000000000000000000000000000000000000000000600052602160045260246000fd5b600381106108e2576108e16108a2565b5b50565b60008190506108f3826108d1565b919050565b6000610903826108e5565b9050919050565b610913816108f8565b82525050565b60a08201600082015161092f6000850182610843565b5060208201516109426020850182610843565b5060408201516109556040850182610852565b5060608201516109686060850182610893565b50608082015161097b608085018261090a565b50505050565b600060a0820190506109966000830184610919565b92915050565b6109a581610881565b82525050565b60006020820190506109c0600083018461099c565b92915050565b60007fffffffffffffffffffffffffffffffff0000000000000000000000000000000082169050919050565b6109fb816109c6565b8114610a0657600080fd5b50565b600081359050610a18816109f2565b92915050565b60008060408385031215610a3557610a346107d1565b5b6000610a4385828601610a09565b9250506020610a54858286016107f7565b9150509250929050565b610a6781610839565b82525050565b6000602082019050610a826000830184610a5e565b92915050565b610a9181610839565b8114610a9c57600080fd5b50565b600081359050610aae81610a88565b92915050565b600060208284031215610aca57610ac96107d1565b5b6000610ad884828501610a9f565b91505092915050565b610aea816107d6565b82525050565b6000602082019050610b056000830184610ae1565b92915050565b610b1481610881565b8114610b1f57600080fd5b50565b600081359050610b3181610b0b565b92915050565b600060208284031215610b4d57610b4c6107d1565b5b6000610b5b84828501610b22565b91505092915050565b6000819050919050565b610b7f610b7a826109c6565b610b64565b82525050565b60008160601b9050919050565b6000610b9d82610b85565b9050919050565b6000610baf82610b92565b9050919050565b610bc7610bc282610881565b610ba4565b82525050565b6000610bd98285610b6e565b601082019150610be98284610bb6565b6014820191508190509392505050565b7f4e487b7100000000000000000000000000000000000000000000000000000000600052601160045260246000fd5b6000610c3382610839565b91507fffffffffffffffffffffffffffffffffffffffffffffffffffffffffffffffff821415610c6657610c65610bf9565b5b60018201905091905056fea2646970667358221220fbbad70aab0d4198b8a16cd7b4a5de02d225f5c222220cef3d14ef3e18b6530664736f6c63430008090033",
  "immutableReferences": {},
  "source": "// SPDX-License-Identifier: MIT\r\npragma solidity >=0.4.22 <0.9.0;\r\n\r\ncontract ItemMarketPlace {\r\n    enum State {\r\n        Purchased,\r\n        Activated,\r\n        Deactivated\r\n    }\r\n\r\n    struct Item {\r\n        uint id;\r\n        uint price;\r\n        bytes32 proof;\r\n        address owner;\r\n        State state;\r\n    } \r\n\r\n    mapping(bytes32 => Item) private ownedItems; //ItemHash => Item Data\r\n    mapping(uint => bytes32) private ownedItemHash; //ItemID => ItemHash\r\n\r\n    uint private totalOwnedItems;\r\n\r\n    address payable private owner;\r\n\r\n    constructor() {\r\n        setContractOwner(msg.sender);\r\n    }\r\n\r\n    /// Course has invalid state!\r\n    error InvalidState();\r\n\r\n    /// Course is not created!\r\n    error ItemIsNotCreated();\r\n\r\n    /// This item has already been purchased.\r\n    error ItemHasOwner();\r\n\r\n    /// Only the owner has access to this method.\r\n    error OnlyOwner();\r\n\r\n    modifier onlyOwner() {\r\n        if(msg.sender != getContractOwner()){\r\n            revert OnlyOwner();\r\n        }\r\n        _;\r\n    }\r\n\r\n    function purchaseItem(\r\n        bytes16 ItemId,\r\n        bytes32 proof)\r\n        external\r\n        payable\r\n    {\r\n        bytes32 ItemHash = keccak256(abi.encodePacked(ItemId, msg.sender));\r\n        if(hasItemOwnership(ItemHash)) {\r\n            revert ItemHasOwner();\r\n        }\r\n        uint id = totalOwnedItems++;\r\n        ownedItemHash[id] = ItemHash;\r\n        ownedItems[ItemHash] = Item({id: id, price: msg.value, proof: proof, owner: msg.sender, state: State.Purchased});\r\n    }\r\n\r\n    function activateItem(bytes32 itemHash)\r\n    external\r\n    onlyOwner\r\n    {\r\n        if (!isItemCreated(itemHash)) {\r\n        revert ItemIsNotCreated();\r\n        }\r\n\r\n        Item storage item = ownedItems[itemHash];\r\n\r\n        if (item.state != State.Purchased) {\r\n        revert InvalidState();\r\n        }\r\n\r\n        item.state = State.Activated;\r\n    }\r\n\r\n    function transferOwnership(address newOwner) \r\n        external\r\n        onlyOwner\r\n    {\r\n        setContractOwner(newOwner);\r\n    }\r\n\r\n    function getItemCount()\r\n        external\r\n        view\r\n        returns (uint)\r\n    {\r\n        return totalOwnedItems;\r\n    }\r\n\r\n    function getItemHashAtIndex(uint index)\r\n        external\r\n        view\r\n        returns (bytes32)\r\n    {\r\n        return ownedItemHash[index];\r\n    }\r\n\r\n    function getItemByHash(bytes32 ItemHash)\r\n        external\r\n        view\r\n        returns (Item memory)\r\n    {\r\n        return ownedItems[ItemHash];\r\n    }\r\n\r\n    function getContractOwner() \r\n        public\r\n        view\r\n        returns (address)\r\n    {\r\n        return owner;\r\n    }\r\n\r\n    function setContractOwner(address newOwner) private {\r\n        owner = payable(newOwner);\r\n    }\r\n\r\n    function isItemCreated(bytes32 itemHash)\r\n        private\r\n        view\r\n        returns (bool)\r\n    {\r\n        return ownedItems[itemHash].owner != 0x0000000000000000000000000000000000000000;\r\n    }\r\n\r\n    function hasItemOwnership(bytes32 ItemHash)\r\n        private\r\n        view\r\n        returns (bool)\r\n    {\r\n        return ownedItems[ItemHash].owner == msg.sender;\r\n    }\r\n\r\n}",
  "sourcePath": "D:\\Major\\marketplace-eth\\contracts\\itemMarketplace.sol",
  "compiler": {
    "name": "solc",
    "version": "0.8.9+commit.e5eed63a.Emscripten.clang"
  },
  "schemaVersion": "3.4.3",
  "updatedAt": "2022-05-16T13:48:31.491Z",
  "networkType": "ethereum",
  "devdoc": {
    "kind": "dev",
    "methods": {},
    "version": 1
  },
  "userdoc": {
    "errors": {
      "InvalidState()": [
        {
          "notice": "Course has invalid state!"
        }
      ],
      "ItemHasOwner()": [
        {
          "notice": "This item has already been purchased."
        }
      ],
      "ItemIsNotCreated()": [
        {
          "notice": "Course is not created!"
        }
      ],
      "OnlyOwner()": [
        {
          "notice": "Only the owner has access to this method."
        }
      ]
    },
    "kind": "user",
    "methods": {},
    "version": 1
  }
}