{
  "contractName": "ItemMarketPlace",
  "abi": [
    {
      "inputs": [],
      "stateMutability": "nonpayable",
      "type": "constructor"
    },
    {
      "inputs": [],
      "name": "InvalidState",
      "type": "error"
    },
    {
      "inputs": [],
      "name": "ItemHasOwner",
      "type": "error"
    },
    {
      "inputs": [],
      "name": "ItemIsNotCreated",
      "type": "error"
    },
    {
      "inputs": [],
      "name": "OnlyOwner",
      "type": "error"
    },
    {
      "inputs": [],
      "name": "SenderIsNotItemOwner",
      "type": "error"
    },
    {
      "inputs": [
        {
          "internalType": "bytes16",
          "name": "ItemId",
          "type": "bytes16"
        },
        {
          "internalType": "bytes32",
          "name": "proof",
          "type": "bytes32"
        }
      ],
      "name": "purchaseItem",
      "outputs": [],
      "stateMutability": "payable",
      "type": "function",
      "payable": true
    },
    {
      "inputs": [
        {
          "internalType": "bytes32",
          "name": "itemHash",
          "type": "bytes32"
        }
      ],
      "name": "repurchaseItem",
      "outputs": [],
      "stateMutability": "payable",
      "type": "function",
      "payable": true
    },
    {
      "inputs": [
        {
          "internalType": "bytes32",
          "name": "itemHash",
          "type": "bytes32"
        }
      ],
      "name": "deActivateItem",
      "outputs": [],
      "stateMutability": "nonpayable",
      "type": "function"
    },
    {
      "inputs": [
        {
          "internalType": "bytes32",
          "name": "itemHash",
          "type": "bytes32"
        }
      ],
      "name": "activateItem",
      "outputs": [],
      "stateMutability": "nonpayable",
      "type": "function"
    },
    {
      "inputs": [
        {
          "internalType": "address",
          "name": "newOwner",
          "type": "address"
        }
      ],
      "name": "transferOwnership",
      "outputs": [],
      "stateMutability": "nonpayable",
      "type": "function"
    },
    {
      "inputs": [],
      "name": "getItemCount",
      "outputs": [
        {
          "internalType": "uint256",
          "name": "",
          "type": "uint256"
        }
      ],
      "stateMutability": "view",
      "type": "function",
      "constant": true
    },
    {
      "inputs": [
        {
          "internalType": "uint256",
          "name": "index",
          "type": "uint256"
        }
      ],
      "name": "getItemHashAtIndex",
      "outputs": [
        {
          "internalType": "bytes32",
          "name": "",
          "type": "bytes32"
        }
      ],
      "stateMutability": "view",
      "type": "function",
      "constant": true
    },
    {
      "inputs": [
        {
          "internalType": "bytes32",
          "name": "ItemHash",
          "type": "bytes32"
        }
      ],
      "name": "getItemByHash",
      "outputs": [
        {
          "components": [
            {
              "internalType": "uint256",
              "name": "id",
              "type": "uint256"
            },
            {
              "internalType": "uint256",
              "name": "price",
              "type": "uint256"
            },
            {
              "internalType": "bytes32",
              "name": "proof",
              "type": "bytes32"
            },
            {
              "internalType": "address",
              "name": "owner",
              "type": "address"
            },
            {
              "internalType": "enum ItemMarketPlace.State",
              "name": "state",
              "type": "uint8"
            }
          ],
          "internalType": "struct ItemMarketPlace.Item",
          "name": "",
          "type": "tuple"
        }
      ],
      "stateMutability": "view",
      "type": "function",
      "constant": true
    },
    {
      "inputs": [],
      "name": "getContractOwner",
      "outputs": [
        {
          "internalType": "address",
          "name": "",
          "type": "address"
        }
      ],
      "stateMutability": "view",
      "type": "function",
      "constant": true
    }
  ],
  "bytecode": "0x608060405234801561001057600080fd5b506100203361002560201b60201c565b610069565b80600360006101000a81548173ffffffffffffffffffffffffffffffffffffffff021916908373ffffffffffffffffffffffffffffffffffffffff16021790555050565b611141806100786000396000f3fe6080604052600436106100865760003560e01c8063acc5e27611610059578063acc5e2761461013a578063c1fb1caf14610163578063d5e7cbb71461018c578063f2fde38b146101c9578063f89df7ff146101f257610086565b8063234780a71461008b578063442890d5146100c8578063592f9006146100f35780637749cf231461010f575b600080fd5b34801561009757600080fd5b506100b260048036038101906100ad9190610be3565b61020e565b6040516100bf9190610d58565b60405180910390f35b3480156100d457600080fd5b506100dd6102e9565b6040516100ea9190610d82565b60405180910390f35b61010d60048036038101906101089190610df5565b610313565b005b34801561011b57600080fd5b506101246104b3565b6040516101319190610e44565b60405180910390f35b34801561014657600080fd5b50610161600480360381019061015c9190610be3565b6104bd565b005b34801561016f57600080fd5b5061018a60048036038101906101859190610be3565b61061e565b005b34801561019857600080fd5b506101b360048036038101906101ae9190610e8b565b61085e565b6040516101c09190610ec7565b60405180910390f35b3480156101d557600080fd5b506101f060048036038101906101eb9190610f0e565b61087b565b005b61020c60048036038101906102079190610be3565b6108f3565b005b610216610b4e565b6000808381526020019081526020016000206040518060a00160405290816000820154815260200160018201548152602001600282015481526020016003820160009054906101000a900473ffffffffffffffffffffffffffffffffffffffff1673ffffffffffffffffffffffffffffffffffffffff1673ffffffffffffffffffffffffffffffffffffffff1681526020016003820160149054906101000a900460ff1660028111156102cc576102cb610c79565b5b60028111156102de576102dd610c79565b5b815250509050919050565b6000600360009054906101000a900473ffffffffffffffffffffffffffffffffffffffff16905090565b60008233604051602001610328929190610fa4565b60405160208183030381529060405280519060200120905061034981610a2f565b15610380576040517f2ac1a44e00000000000000000000000000000000000000000000000000000000815260040160405180910390fd5b60006002600081548092919061039590610fff565b9190505590508160016000838152602001908152602001600020819055506040518060a001604052808281526020013481526020018481526020013373ffffffffffffffffffffffffffffffffffffffff16815260200160006002811115610400576103ff610c79565b5b81525060008084815260200190815260200160002060008201518160000155602082015181600101556040820151816002015560608201518160030160006101000a81548173ffffffffffffffffffffffffffffffffffffffff021916908373ffffffffffffffffffffffffffffffffffffffff16021790555060808201518160030160146101000a81548160ff021916908360028111156104a5576104a4610c79565b5b021790555090505050505050565b6000600254905090565b6104c56102e9565b73ffffffffffffffffffffffffffffffffffffffff163373ffffffffffffffffffffffffffffffffffffffff1614610529576040517f5fc483c500000000000000000000000000000000000000000000000000000000815260040160405180910390fd5b61053281610a9c565b610568576040517feff99ffe00000000000000000000000000000000000000000000000000000000815260040160405180910390fd5b600080600083815260200190815260200160002090506000600281111561059257610591610c79565b5b8160030160149054906101000a900460ff1660028111156105b6576105b5610c79565b5b146105ed576040517fbaf3f0f700000000000000000000000000000000000000000000000000000000815260040160405180910390fd5b60018160030160146101000a81548160ff0219169083600281111561061557610614610c79565b5b02179055505050565b6106266102e9565b73ffffffffffffffffffffffffffffffffffffffff163373ffffffffffffffffffffffffffffffffffffffff161461068a576040517f5fc483c500000000000000000000000000000000000000000000000000000000815260040160405180910390fd5b61069381610a9c565b6106c9576040517feff99ffe00000000000000000000000000000000000000000000000000000000815260040160405180910390fd5b60008060008381526020019081526020016000209050600060028111156106f3576106f2610c79565b5b8160030160149054906101000a900460ff16600281111561071757610716610c79565b5b1461074e576040517fbaf3f0f700000000000000000000000000000000000000000000000000000000815260040160405180910390fd5b60008160030160009054906101000a900473ffffffffffffffffffffffffffffffffffffffff1673ffffffffffffffffffffffffffffffffffffffff16826001015460405161079c90611079565b60006040518083038185875af1925050503d80600081146107d9576040519150601f19603f3d011682016040523d82523d6000602084013e6107de565b606091505b5050905080610822576040517f08c379a0000000000000000000000000000000000000000000000000000000008152600401610819906110eb565b60405180910390fd5b60028260030160146101000a81548160ff0219169083600281111561084a57610849610c79565b5b021790555060008260010181905550505050565b600060016000838152602001908152602001600020549050919050565b6108836102e9565b73ffffffffffffffffffffffffffffffffffffffff163373ffffffffffffffffffffffffffffffffffffffff16146108e7576040517f5fc483c500000000000000000000000000000000000000000000000000000000815260040160405180910390fd5b6108f081610b0a565b50565b6108fc81610a9c565b610932576040517feff99ffe00000000000000000000000000000000000000000000000000000000815260040160405180910390fd5b61093b81610a2f565b610971576040517f97b09ac800000000000000000000000000000000000000000000000000000000815260040160405180910390fd5b6000806000838152602001908152602001600020905060028081111561099a57610999610c79565b5b8160030160149054906101000a900460ff1660028111156109be576109bd610c79565b5b146109f5576040517fbaf3f0f700000000000000000000000000000000000000000000000000000000815260040160405180910390fd5b60008160030160146101000a81548160ff02191690836002811115610a1d57610a1c610c79565b5b02179055503481600101819055505050565b60003373ffffffffffffffffffffffffffffffffffffffff1660008084815260200190815260200160002060030160009054906101000a900473ffffffffffffffffffffffffffffffffffffffff1673ffffffffffffffffffffffffffffffffffffffff16149050919050565b60008073ffffffffffffffffffffffffffffffffffffffff1660008084815260200190815260200160002060030160009054906101000a900473ffffffffffffffffffffffffffffffffffffffff1673ffffffffffffffffffffffffffffffffffffffff1614159050919050565b80600360006101000a81548173ffffffffffffffffffffffffffffffffffffffff021916908373ffffffffffffffffffffffffffffffffffffffff16021790555050565b6040518060a00160405280600081526020016000815260200160008019168152602001600073ffffffffffffffffffffffffffffffffffffffff16815260200160006002811115610ba257610ba1610c79565b5b81525090565b600080fd5b6000819050919050565b610bc081610bad565b8114610bcb57600080fd5b50565b600081359050610bdd81610bb7565b92915050565b600060208284031215610bf957610bf8610ba8565b5b6000610c0784828501610bce565b91505092915050565b6000819050919050565b610c2381610c10565b82525050565b610c3281610bad565b82525050565b600073ffffffffffffffffffffffffffffffffffffffff82169050919050565b6000610c6382610c38565b9050919050565b610c7381610c58565b82525050565b7f4e487b7100000000000000000000000000000000000000000000000000000000600052602160045260246000fd5b60038110610cb957610cb8610c79565b5b50565b6000819050610cca82610ca8565b919050565b6000610cda82610cbc565b9050919050565b610cea81610ccf565b82525050565b60a082016000820151610d066000850182610c1a565b506020820151610d196020850182610c1a565b506040820151610d2c6040850182610c29565b506060820151610d3f6060850182610c6a565b506080820151610d526080850182610ce1565b50505050565b600060a082019050610d6d6000830184610cf0565b92915050565b610d7c81610c58565b82525050565b6000602082019050610d976000830184610d73565b92915050565b60007fffffffffffffffffffffffffffffffff0000000000000000000000000000000082169050919050565b610dd281610d9d565b8114610ddd57600080fd5b50565b600081359050610def81610dc9565b92915050565b60008060408385031215610e0c57610e0b610ba8565b5b6000610e1a85828601610de0565b9250506020610e2b85828601610bce565b9150509250929050565b610e3e81610c10565b82525050565b6000602082019050610e596000830184610e35565b92915050565b610e6881610c10565b8114610e7357600080fd5b50565b600081359050610e8581610e5f565b92915050565b600060208284031215610ea157610ea0610ba8565b5b6000610eaf84828501610e76565b91505092915050565b610ec181610bad565b82525050565b6000602082019050610edc6000830184610eb8565b92915050565b610eeb81610c58565b8114610ef657600080fd5b50565b600081359050610f0881610ee2565b92915050565b600060208284031215610f2457610f23610ba8565b5b6000610f3284828501610ef9565b91505092915050565b6000819050919050565b610f56610f5182610d9d565b610f3b565b82525050565b60008160601b9050919050565b6000610f7482610f5c565b9050919050565b6000610f8682610f69565b9050919050565b610f9e610f9982610c58565b610f7b565b82525050565b6000610fb08285610f45565b601082019150610fc08284610f8d565b6014820191508190509392505050565b7f4e487b7100000000000000000000000000000000000000000000000000000000600052601160045260246000fd5b600061100a82610c10565b91507fffffffffffffffffffffffffffffffffffffffffffffffffffffffffffffffff82141561103d5761103c610fd0565b5b600182019050919050565b600081905092915050565b50565b6000611063600083611048565b915061106e82611053565b600082019050919050565b600061108482611056565b9150819050919050565b600082825260208201905092915050565b7f5472616e73666572204661696c65640000000000000000000000000000000000600082015250565b60006110d5600f8361108e565b91506110e08261109f565b602082019050919050565b60006020820190508181036000830152611104816110c8565b905091905056fea2646970667358221220f01adc4ce1b785dc8cbc2ad943391cc1f05dda02bee2e1a6b84db3aeecf9e97064736f6c63430008090033",
  "immutableReferences": {},
  "source": "// SPDX-License-Identifier: MIT\r\npragma solidity >=0.4.22 <0.9.0;\r\n\r\ncontract ItemMarketPlace {\r\n    enum State {\r\n        Purchased,\r\n        Activated,\r\n        Deactivated\r\n    }\r\n\r\n    struct Item {\r\n        uint id;\r\n        uint price;\r\n        bytes32 proof;\r\n        address owner;\r\n        State state;\r\n    } \r\n\r\n    mapping(bytes32 => Item) private ownedItems; //ItemHash => Item Data\r\n    mapping(uint => bytes32) private ownedItemHash; //ItemID => ItemHash\r\n\r\n    uint private totalOwnedItems;\r\n\r\n    address payable private owner;\r\n\r\n    constructor() {\r\n        setContractOwner(msg.sender);\r\n    }\r\n\r\n    /// Course has invalid state!\r\n    error InvalidState();\r\n\r\n    /// Course is not created!\r\n    error ItemIsNotCreated();\r\n\r\n    /// This item has already been purchased.\r\n    error ItemHasOwner();\r\n\r\n    /// Sender is not Item Owner.\r\n    error SenderIsNotItemOwner();\r\n\r\n    /// Only the owner has access to this method.\r\n    error OnlyOwner();\r\n\r\n    modifier onlyOwner() {\r\n        if(msg.sender != getContractOwner()){\r\n            revert OnlyOwner();\r\n        }\r\n        _;\r\n    }\r\n\r\n    function purchaseItem(\r\n        bytes16 ItemId,\r\n        bytes32 proof)\r\n        external\r\n        payable\r\n    {\r\n        bytes32 ItemHash = keccak256(abi.encodePacked(ItemId, msg.sender));\r\n        if(hasItemOwnership(ItemHash)) {\r\n            revert ItemHasOwner();\r\n        }\r\n        uint id = totalOwnedItems++;\r\n        ownedItemHash[id] = ItemHash;\r\n        ownedItems[ItemHash] = Item({id: id, price: msg.value, proof: proof, owner: msg.sender, state: State.Purchased});\r\n    }\r\n\r\n    function repurchaseItem(bytes32 itemHash) \r\n        external\r\n        payable\r\n    {\r\n        if (!isItemCreated(itemHash)){\r\n            revert ItemIsNotCreated();\r\n        }\r\n\r\n        if (!hasItemOwnership(itemHash)){\r\n            revert SenderIsNotItemOwner();\r\n        }\r\n\r\n        Item storage item = ownedItems[itemHash];\r\n\r\n        if (item.state != State.Deactivated){\r\n            revert InvalidState();\r\n        }\r\n\r\n        item.state = State.Purchased;\r\n        item.price = msg.value;\r\n    }\r\n\r\n    function deActivateItem(bytes32 itemHash)\r\n    external\r\n    onlyOwner\r\n    {\r\n        if (!isItemCreated(itemHash)) {\r\n        revert ItemIsNotCreated();\r\n        }\r\n\r\n        Item storage item = ownedItems[itemHash];\r\n\r\n        if (item.state != State.Purchased) {\r\n        revert InvalidState();\r\n        }\r\n\r\n        (bool success, ) = item.owner.call{value: item.price}(\"\");\r\n        require(success, \"Transfer Failed\");\r\n\r\n        item.state = State.Deactivated;\r\n        item.price = 0;\r\n    }\r\n\r\n    function activateItem(bytes32 itemHash)\r\n    external\r\n    onlyOwner\r\n    {\r\n        if (!isItemCreated(itemHash)) {\r\n        revert ItemIsNotCreated();\r\n        }\r\n\r\n        Item storage item = ownedItems[itemHash];\r\n\r\n        if (item.state != State.Purchased) {\r\n        revert InvalidState();\r\n        }\r\n\r\n        item.state = State.Activated;\r\n    }\r\n\r\n    function transferOwnership(address newOwner) \r\n        external\r\n        onlyOwner\r\n    {\r\n        setContractOwner(newOwner);\r\n    }\r\n\r\n    function getItemCount()\r\n        external\r\n        view\r\n        returns (uint)\r\n    {\r\n        return totalOwnedItems;\r\n    }\r\n\r\n    function getItemHashAtIndex(uint index)\r\n        external\r\n        view\r\n        returns (bytes32)\r\n    {\r\n        return ownedItemHash[index];\r\n    }\r\n\r\n    function getItemByHash(bytes32 ItemHash)\r\n        external\r\n        view\r\n        returns (Item memory)\r\n    {\r\n        return ownedItems[ItemHash];\r\n    }\r\n\r\n    function getContractOwner() \r\n        public\r\n        view\r\n        returns (address)\r\n    {\r\n        return owner;\r\n    }\r\n\r\n    function setContractOwner(address newOwner) private {\r\n        owner = payable(newOwner);\r\n    }\r\n\r\n    function isItemCreated(bytes32 itemHash)\r\n        private\r\n        view\r\n        returns (bool)\r\n    {\r\n        return ownedItems[itemHash].owner != 0x0000000000000000000000000000000000000000;\r\n    }\r\n\r\n    function hasItemOwnership(bytes32 ItemHash)\r\n        private\r\n        view\r\n        returns (bool)\r\n    {\r\n        return ownedItems[ItemHash].owner == msg.sender;\r\n    }\r\n\r\n}",
  "sourcePath": "D:\\Major\\marketplace-eth\\contracts\\itemMarketplace.sol",
  "compiler": {
    "name": "solc",
    "version": "0.8.9+commit.e5eed63a.Emscripten.clang"
  },
  "schemaVersion": "3.4.3",
  "updatedAt": "2022-05-16T23:00:54.947Z",
  "networkType": "ethereum",
  "devdoc": {
    "kind": "dev",
    "methods": {},
    "version": 1
  },
  "userdoc": {
    "errors": {
      "InvalidState()": [
        {
          "notice": "Course has invalid state!"
        }
      ],
      "ItemHasOwner()": [
        {
          "notice": "This item has already been purchased."
        }
      ],
      "ItemIsNotCreated()": [
        {
          "notice": "Course is not created!"
        }
      ],
      "OnlyOwner()": [
        {
          "notice": "Only the owner has access to this method."
        }
      ],
      "SenderIsNotItemOwner()": [
        {
          "notice": "Sender is not Item Owner."
        }
      ]
    },
    "kind": "user",
    "methods": {},
    "version": 1
  }
}