{
  "contractName": "ItemMarketPlace",
  "abi": [
    {
      "inputs": [],
      "stateMutability": "nonpayable",
      "type": "constructor"
    },
    {
      "inputs": [],
      "name": "InvalidState",
      "type": "error"
    },
    {
      "inputs": [],
      "name": "ItemHasOwner",
      "type": "error"
    },
    {
      "inputs": [],
      "name": "ItemIsNotCreated",
      "type": "error"
    },
    {
      "inputs": [],
      "name": "OnlyOwner",
      "type": "error"
    },
    {
      "inputs": [],
      "name": "SenderIsNotItemOwner",
      "type": "error"
    },
    {
      "inputs": [],
      "name": "terminated",
      "outputs": [
        {
          "internalType": "bool",
          "name": "",
          "type": "bool"
        }
      ],
      "stateMutability": "view",
      "type": "function",
      "constant": true
    },
    {
      "stateMutability": "payable",
      "type": "receive",
      "payable": true
    },
    {
      "inputs": [
        {
          "internalType": "uint256",
          "name": "amount",
          "type": "uint256"
        }
      ],
      "name": "withdraw",
      "outputs": [],
      "stateMutability": "nonpayable",
      "type": "function"
    },
    {
      "inputs": [],
      "name": "emergencyWithdraw",
      "outputs": [],
      "stateMutability": "nonpayable",
      "type": "function"
    },
    {
      "inputs": [],
      "name": "selfDestruct",
      "outputs": [],
      "stateMutability": "nonpayable",
      "type": "function"
    },
    {
      "inputs": [],
      "name": "terminateContract",
      "outputs": [],
      "stateMutability": "nonpayable",
      "type": "function"
    },
    {
      "inputs": [],
      "name": "resumeContract",
      "outputs": [],
      "stateMutability": "nonpayable",
      "type": "function"
    },
    {
      "inputs": [
        {
          "internalType": "bytes16",
          "name": "ItemId",
          "type": "bytes16"
        },
        {
          "internalType": "bytes32",
          "name": "proof",
          "type": "bytes32"
        }
      ],
      "name": "purchaseItem",
      "outputs": [],
      "stateMutability": "payable",
      "type": "function",
      "payable": true
    },
    {
      "inputs": [
        {
          "internalType": "bytes32",
          "name": "itemHash",
          "type": "bytes32"
        }
      ],
      "name": "repurchaseItem",
      "outputs": [],
      "stateMutability": "payable",
      "type": "function",
      "payable": true
    },
    {
      "inputs": [
        {
          "internalType": "bytes32",
          "name": "itemHash",
          "type": "bytes32"
        }
      ],
      "name": "deActivateItem",
      "outputs": [],
      "stateMutability": "nonpayable",
      "type": "function"
    },
    {
      "inputs": [
        {
          "internalType": "bytes32",
          "name": "itemHash",
          "type": "bytes32"
        }
      ],
      "name": "activateItem",
      "outputs": [],
      "stateMutability": "nonpayable",
      "type": "function"
    },
    {
      "inputs": [
        {
          "internalType": "address",
          "name": "newOwner",
          "type": "address"
        }
      ],
      "name": "transferOwnership",
      "outputs": [],
      "stateMutability": "nonpayable",
      "type": "function"
    },
    {
      "inputs": [],
      "name": "getItemCount",
      "outputs": [
        {
          "internalType": "uint256",
          "name": "",
          "type": "uint256"
        }
      ],
      "stateMutability": "view",
      "type": "function",
      "constant": true
    },
    {
      "inputs": [
        {
          "internalType": "uint256",
          "name": "index",
          "type": "uint256"
        }
      ],
      "name": "getItemHashAtIndex",
      "outputs": [
        {
          "internalType": "bytes32",
          "name": "",
          "type": "bytes32"
        }
      ],
      "stateMutability": "view",
      "type": "function",
      "constant": true
    },
    {
      "inputs": [
        {
          "internalType": "bytes32",
          "name": "ItemHash",
          "type": "bytes32"
        }
      ],
      "name": "getItemByHash",
      "outputs": [
        {
          "components": [
            {
              "internalType": "uint256",
              "name": "id",
              "type": "uint256"
            },
            {
              "internalType": "uint256",
              "name": "price",
              "type": "uint256"
            },
            {
              "internalType": "bytes32",
              "name": "proof",
              "type": "bytes32"
            },
            {
              "internalType": "address",
              "name": "owner",
              "type": "address"
            },
            {
              "internalType": "enum ItemMarketPlace.State",
              "name": "state",
              "type": "uint8"
            }
          ],
          "internalType": "struct ItemMarketPlace.Item",
          "name": "",
          "type": "tuple"
        }
      ],
      "stateMutability": "view",
      "type": "function",
      "constant": true
    },
    {
      "inputs": [],
      "name": "getContractOwner",
      "outputs": [
        {
          "internalType": "address",
          "name": "",
          "type": "address"
        }
      ],
      "stateMutability": "view",
      "type": "function",
      "constant": true
    }
  ],
  "bytecode": "0x608060405260008060006101000a81548160ff02191690831515021790555034801561002a57600080fd5b5061003a3361003f60201b60201c565b610083565b80600460006101000a81548173ffffffffffffffffffffffffffffffffffffffff021916908373ffffffffffffffffffffffffffffffffffffffff16021790555050565b6117d8806100926000396000f3fe6080604052600436106100ec5760003560e01c80639cb8a26a1161008a578063d5e7cbb711610059578063d5e7cbb714610292578063db2e21bc146102cf578063f2fde38b146102e6578063f89df7ff1461030f576100f3565b80639cb8a26a14610212578063acc5e27614610229578063c1fb1caf14610252578063c4bc5da51461027b576100f3565b80632fd949ca116100c65780632fd949ca14610189578063442890d5146101a0578063592f9006146101cb5780637749cf23146101e7576100f3565b8063194307bf146100f8578063234780a7146101235780632e1a7d4d14610160576100f3565b366100f357005b600080fd5b34801561010457600080fd5b5061010d61032b565b60405161011a91906111b8565b60405180910390f35b34801561012f57600080fd5b5061014a6004803603810190610145919061120e565b61033c565b6040516101579190611383565b60405180910390f35b34801561016c57600080fd5b50610187600480360381019061018291906113ca565b610418565b005b34801561019557600080fd5b5061019e610556565b005b3480156101ac57600080fd5b506101b56105de565b6040516101c29190611406565b60405180910390f35b6101e560048036038101906101e09190611479565b610608565b005b3480156101f357600080fd5b506101fc6107c1565b60405161020991906114c8565b60405180910390f35b34801561021e57600080fd5b506102276107cb565b005b34801561023557600080fd5b50610250600480360381019061024b919061120e565b610889565b005b34801561025e57600080fd5b506102796004803603810190610274919061120e565b610a03565b005b34801561028757600080fd5b50610290610c5c565b005b34801561029e57600080fd5b506102b960048036038101906102b491906113ca565b610ce4565b6040516102c691906114f2565b60405180910390f35b3480156102db57600080fd5b506102e4610d01565b005b3480156102f257600080fd5b5061030d60048036038101906103089190611539565b610e55565b005b6103296004803603810190610324919061120e565b610ecd565b005b60008054906101000a900460ff1681565b610344611143565b600160008381526020019081526020016000206040518060a00160405290816000820154815260200160018201548152602001600282015481526020016003820160009054906101000a900473ffffffffffffffffffffffffffffffffffffffff1673ffffffffffffffffffffffffffffffffffffffff1673ffffffffffffffffffffffffffffffffffffffff1681526020016003820160149054906101000a900460ff1660028111156103fb576103fa6112a4565b5b600281111561040d5761040c6112a4565b5b815250509050919050565b6104206105de565b73ffffffffffffffffffffffffffffffffffffffff163373ffffffffffffffffffffffffffffffffffffffff1614610484576040517f5fc483c500000000000000000000000000000000000000000000000000000000815260040160405180910390fd5b6000600460009054906101000a900473ffffffffffffffffffffffffffffffffffffffff1673ffffffffffffffffffffffffffffffffffffffff16826040516104cc90611597565b60006040518083038185875af1925050503d8060008114610509576040519150601f19603f3d011682016040523d82523d6000602084013e61050e565b606091505b5050905080610552576040517f08c379a000000000000000000000000000000000000000000000000000000000815260040161054990611609565b60405180910390fd5b5050565b61055e6105de565b73ffffffffffffffffffffffffffffffffffffffff163373ffffffffffffffffffffffffffffffffffffffff16146105c2576040517f5fc483c500000000000000000000000000000000000000000000000000000000815260040160405180910390fd5b60016000806101000a81548160ff021916908315150217905550565b6000600460009054906101000a900473ffffffffffffffffffffffffffffffffffffffff16905090565b60008054906101000a900460ff161561062057600080fd5b60008233604051602001610635929190611692565b60405160208183030381529060405280519060200120905061065681611022565b1561068d576040517f2ac1a44e00000000000000000000000000000000000000000000000000000000815260040160405180910390fd5b6000600360008154809291906106a2906116ed565b9190505590508160026000838152602001908152602001600020819055506040518060a001604052808281526020013481526020018481526020013373ffffffffffffffffffffffffffffffffffffffff1681526020016000600281111561070d5761070c6112a4565b5b8152506001600084815260200190815260200160002060008201518160000155602082015181600101556040820151816002015560608201518160030160006101000a81548173ffffffffffffffffffffffffffffffffffffffff021916908373ffffffffffffffffffffffffffffffffffffffff16021790555060808201518160030160146101000a81548160ff021916908360028111156107b3576107b26112a4565b5b021790555090505050505050565b6000600354905090565b60008054906101000a900460ff166107e257600080fd5b6107ea6105de565b73ffffffffffffffffffffffffffffffffffffffff163373ffffffffffffffffffffffffffffffffffffffff161461084e576040517f5fc483c500000000000000000000000000000000000000000000000000000000815260040160405180910390fd5b600460009054906101000a900473ffffffffffffffffffffffffffffffffffffffff1673ffffffffffffffffffffffffffffffffffffffff16ff5b6108916105de565b73ffffffffffffffffffffffffffffffffffffffff163373ffffffffffffffffffffffffffffffffffffffff16146108f5576040517f5fc483c500000000000000000000000000000000000000000000000000000000815260040160405180910390fd5b60008054906101000a900460ff161561090d57600080fd5b61091681611090565b61094c576040517feff99ffe00000000000000000000000000000000000000000000000000000000815260040160405180910390fd5b600060016000838152602001908152602001600020905060006002811115610977576109766112a4565b5b8160030160149054906101000a900460ff16600281111561099b5761099a6112a4565b5b146109d2576040517fbaf3f0f700000000000000000000000000000000000000000000000000000000815260040160405180910390fd5b60018160030160146101000a81548160ff021916908360028111156109fa576109f96112a4565b5b02179055505050565b610a0b6105de565b73ffffffffffffffffffffffffffffffffffffffff163373ffffffffffffffffffffffffffffffffffffffff1614610a6f576040517f5fc483c500000000000000000000000000000000000000000000000000000000815260040160405180910390fd5b60008054906101000a900460ff1615610a8757600080fd5b610a9081611090565b610ac6576040517feff99ffe00000000000000000000000000000000000000000000000000000000815260040160405180910390fd5b600060016000838152602001908152602001600020905060006002811115610af157610af06112a4565b5b8160030160149054906101000a900460ff166002811115610b1557610b146112a4565b5b14610b4c576040517fbaf3f0f700000000000000000000000000000000000000000000000000000000815260040160405180910390fd5b60008160030160009054906101000a900473ffffffffffffffffffffffffffffffffffffffff1673ffffffffffffffffffffffffffffffffffffffff168260010154604051610b9a90611597565b60006040518083038185875af1925050503d8060008114610bd7576040519150601f19603f3d011682016040523d82523d6000602084013e610bdc565b606091505b5050905080610c20576040517f08c379a0000000000000000000000000000000000000000000000000000000008152600401610c1790611782565b60405180910390fd5b60028260030160146101000a81548160ff02191690836002811115610c4857610c476112a4565b5b021790555060008260010181905550505050565b610c646105de565b73ffffffffffffffffffffffffffffffffffffffff163373ffffffffffffffffffffffffffffffffffffffff1614610cc8576040517f5fc483c500000000000000000000000000000000000000000000000000000000815260040160405180910390fd5b60008060006101000a81548160ff021916908315150217905550565b600060026000838152602001908152602001600020549050919050565b610d096105de565b73ffffffffffffffffffffffffffffffffffffffff163373ffffffffffffffffffffffffffffffffffffffff1614610d6d576040517f5fc483c500000000000000000000000000000000000000000000000000000000815260040160405180910390fd5b60008054906101000a900460ff16610d8457600080fd5b6000600460009054906101000a900473ffffffffffffffffffffffffffffffffffffffff1673ffffffffffffffffffffffffffffffffffffffff1647604051610dcc90611597565b60006040518083038185875af1925050503d8060008114610e09576040519150601f19603f3d011682016040523d82523d6000602084013e610e0e565b606091505b5050905080610e52576040517f08c379a0000000000000000000000000000000000000000000000000000000008152600401610e4990611609565b60405180910390fd5b50565b610e5d6105de565b73ffffffffffffffffffffffffffffffffffffffff163373ffffffffffffffffffffffffffffffffffffffff1614610ec1576040517f5fc483c500000000000000000000000000000000000000000000000000000000815260040160405180910390fd5b610eca816110ff565b50565b60008054906101000a900460ff1615610ee557600080fd5b610eee81611090565b610f24576040517feff99ffe00000000000000000000000000000000000000000000000000000000815260040160405180910390fd5b610f2d81611022565b610f63576040517f97b09ac800000000000000000000000000000000000000000000000000000000815260040160405180910390fd5b6000600160008381526020019081526020016000209050600280811115610f8d57610f8c6112a4565b5b8160030160149054906101000a900460ff166002811115610fb157610fb06112a4565b5b14610fe8576040517fbaf3f0f700000000000000000000000000000000000000000000000000000000815260040160405180910390fd5b60008160030160146101000a81548160ff021916908360028111156110105761100f6112a4565b5b02179055503481600101819055505050565b60003373ffffffffffffffffffffffffffffffffffffffff166001600084815260200190815260200160002060030160009054906101000a900473ffffffffffffffffffffffffffffffffffffffff1673ffffffffffffffffffffffffffffffffffffffff16149050919050565b60008073ffffffffffffffffffffffffffffffffffffffff166001600084815260200190815260200160002060030160009054906101000a900473ffffffffffffffffffffffffffffffffffffffff1673ffffffffffffffffffffffffffffffffffffffff1614159050919050565b80600460006101000a81548173ffffffffffffffffffffffffffffffffffffffff021916908373ffffffffffffffffffffffffffffffffffffffff16021790555050565b6040518060a00160405280600081526020016000815260200160008019168152602001600073ffffffffffffffffffffffffffffffffffffffff16815260200160006002811115611197576111966112a4565b5b81525090565b60008115159050919050565b6111b28161119d565b82525050565b60006020820190506111cd60008301846111a9565b92915050565b600080fd5b6000819050919050565b6111eb816111d8565b81146111f657600080fd5b50565b600081359050611208816111e2565b92915050565b600060208284031215611224576112236111d3565b5b6000611232848285016111f9565b91505092915050565b6000819050919050565b61124e8161123b565b82525050565b61125d816111d8565b82525050565b600073ffffffffffffffffffffffffffffffffffffffff82169050919050565b600061128e82611263565b9050919050565b61129e81611283565b82525050565b7f4e487b7100000000000000000000000000000000000000000000000000000000600052602160045260246000fd5b600381106112e4576112e36112a4565b5b50565b60008190506112f5826112d3565b919050565b6000611305826112e7565b9050919050565b611315816112fa565b82525050565b60a0820160008201516113316000850182611245565b5060208201516113446020850182611245565b5060408201516113576040850182611254565b50606082015161136a6060850182611295565b50608082015161137d608085018261130c565b50505050565b600060a082019050611398600083018461131b565b92915050565b6113a78161123b565b81146113b257600080fd5b50565b6000813590506113c48161139e565b92915050565b6000602082840312156113e0576113df6111d3565b5b60006113ee848285016113b5565b91505092915050565b61140081611283565b82525050565b600060208201905061141b60008301846113f7565b92915050565b60007fffffffffffffffffffffffffffffffff0000000000000000000000000000000082169050919050565b61145681611421565b811461146157600080fd5b50565b6000813590506114738161144d565b92915050565b600080604083850312156114905761148f6111d3565b5b600061149e85828601611464565b92505060206114af858286016111f9565b9150509250929050565b6114c28161123b565b82525050565b60006020820190506114dd60008301846114b9565b92915050565b6114ec816111d8565b82525050565b600060208201905061150760008301846114e3565b92915050565b61151681611283565b811461152157600080fd5b50565b6000813590506115338161150d565b92915050565b60006020828403121561154f5761154e6111d3565b5b600061155d84828501611524565b91505092915050565b600081905092915050565b50565b6000611581600083611566565b915061158c82611571565b600082019050919050565b60006115a282611574565b9150819050919050565b600082825260208201905092915050565b7f5472616e73666572206661696c65640000000000000000000000000000000000600082015250565b60006115f3600f836115ac565b91506115fe826115bd565b602082019050919050565b60006020820190508181036000830152611622816115e6565b9050919050565b6000819050919050565b61164461163f82611421565b611629565b82525050565b60008160601b9050919050565b60006116628261164a565b9050919050565b600061167482611657565b9050919050565b61168c61168782611283565b611669565b82525050565b600061169e8285611633565b6010820191506116ae828461167b565b6014820191508190509392505050565b7f4e487b7100000000000000000000000000000000000000000000000000000000600052601160045260246000fd5b60006116f88261123b565b91507fffffffffffffffffffffffffffffffffffffffffffffffffffffffffffffffff82141561172b5761172a6116be565b5b600182019050919050565b7f5472616e73666572204661696c65640000000000000000000000000000000000600082015250565b600061176c600f836115ac565b915061177782611736565b602082019050919050565b6000602082019050818103600083015261179b8161175f565b905091905056fea264697066735822122031e8821e95c307743bd971fac2e42fc3a8e077a3878bcbf9facff52f3cd0c24d64736f6c63430008090033",
  "immutableReferences": {},
  "source": "// SPDX-License-Identifier: MIT\r\npragma solidity >=0.4.22 <0.9.0;\r\n\r\ncontract ItemMarketPlace {\r\n    enum State {\r\n        Purchased,\r\n        Activated,\r\n        Deactivated\r\n    }\r\n\r\n    struct Item {\r\n        uint id;\r\n        uint price;\r\n        bytes32 proof;\r\n        address owner;\r\n        State state;\r\n    } \r\n\r\n    bool public terminated = false;\r\n\r\n    mapping(bytes32 => Item) private ownedItems; //ItemHash => Item Data\r\n    mapping(uint => bytes32) private ownedItemHash; //ItemID => ItemHash\r\n\r\n    uint private totalOwnedItems;\r\n\r\n    address payable private owner;\r\n\r\n    constructor() {\r\n        setContractOwner(msg.sender);\r\n    }\r\n\r\n    /// Course has invalid state!\r\n    error InvalidState();\r\n\r\n    /// Course is not created!\r\n    error ItemIsNotCreated();\r\n\r\n    /// This item has already been purchased.\r\n    error ItemHasOwner();\r\n\r\n    /// Sender is not Item Owner.\r\n    error SenderIsNotItemOwner();\r\n\r\n    /// Only the owner has access to this method.\r\n    error OnlyOwner();\r\n\r\n    modifier onlyOwner() {\r\n        if(msg.sender != getContractOwner()){\r\n            revert OnlyOwner();\r\n        }\r\n        _;\r\n    }\r\n\r\n    modifier onlyWhenNotTerminated {\r\n        require(!terminated);\r\n        _;\r\n    }\r\n\r\n    modifier onlyWhenTerminated {\r\n        require(terminated);\r\n        _;\r\n    }\r\n\r\n    receive() external payable {}\r\n\r\n    function withdraw(uint amount)\r\n        external\r\n        onlyOwner\r\n    {\r\n        (bool success, ) = owner.call{value: amount}(\"\");\r\n        require(success, \"Transfer failed\");\r\n    }\r\n\r\n    function emergencyWithdraw()\r\n        external\r\n        onlyOwner\r\n        onlyWhenTerminated\r\n    {\r\n        (bool success, ) = owner.call{value: address(this).balance}(\"\");\r\n        require(success, \"Transfer failed\");\r\n    }\r\n\r\n    function selfDestruct()\r\n        external\r\n        onlyWhenTerminated\r\n        onlyOwner\r\n    {\r\n        selfdestruct(owner);\r\n    }\r\n\r\n    function terminateContract()\r\n        external\r\n        onlyOwner\r\n    {\r\n        terminated = true;\r\n    }\r\n\r\n    function resumeContract() \r\n        external\r\n        onlyOwner\r\n    {\r\n        terminated = false;\r\n    }\r\n        \r\n\r\n    function purchaseItem(\r\n        bytes16 ItemId,\r\n        bytes32 proof)\r\n        external\r\n        payable\r\n        onlyWhenNotTerminated\r\n    {\r\n        bytes32 ItemHash = keccak256(abi.encodePacked(ItemId, msg.sender));\r\n        if(hasItemOwnership(ItemHash)) {\r\n            revert ItemHasOwner();\r\n        }\r\n        uint id = totalOwnedItems++;\r\n        ownedItemHash[id] = ItemHash;\r\n        ownedItems[ItemHash] = Item({id: id, price: msg.value, proof: proof, owner: msg.sender, state: State.Purchased});\r\n    }\r\n\r\n    function repurchaseItem(bytes32 itemHash) \r\n        external\r\n        payable\r\n        onlyWhenNotTerminated\r\n    {\r\n        if (!isItemCreated(itemHash)){\r\n            revert ItemIsNotCreated();\r\n        }\r\n\r\n        if (!hasItemOwnership(itemHash)){\r\n            revert SenderIsNotItemOwner();\r\n        }\r\n\r\n        Item storage item = ownedItems[itemHash];\r\n\r\n        if (item.state != State.Deactivated){\r\n            revert InvalidState();\r\n        }\r\n\r\n        item.state = State.Purchased;\r\n        item.price = msg.value;\r\n    }\r\n\r\n    function deActivateItem(bytes32 itemHash)\r\n        external\r\n        onlyOwner\r\n        onlyWhenNotTerminated\r\n    {\r\n        if (!isItemCreated(itemHash)) {\r\n        revert ItemIsNotCreated();\r\n        }\r\n\r\n        Item storage item = ownedItems[itemHash];\r\n\r\n        if (item.state != State.Purchased) {\r\n        revert InvalidState();\r\n        }\r\n\r\n        (bool success, ) = item.owner.call{value: item.price}(\"\");\r\n        require(success, \"Transfer Failed\");\r\n\r\n        item.state = State.Deactivated;\r\n        item.price = 0;\r\n    }\r\n\r\n    function activateItem(bytes32 itemHash)\r\n        external\r\n        onlyOwner\r\n        onlyWhenNotTerminated\r\n    {\r\n        if (!isItemCreated(itemHash)) {\r\n        revert ItemIsNotCreated();\r\n        }\r\n\r\n        Item storage item = ownedItems[itemHash];\r\n\r\n        if (item.state != State.Purchased) {\r\n        revert InvalidState();\r\n        }\r\n\r\n        item.state = State.Activated;\r\n    }\r\n\r\n    function transferOwnership(address newOwner) \r\n        external\r\n        onlyOwner\r\n    {\r\n        setContractOwner(newOwner);\r\n    }\r\n\r\n    function getItemCount()\r\n        external\r\n        view\r\n        returns (uint)\r\n    {\r\n        return totalOwnedItems;\r\n    }\r\n\r\n    function getItemHashAtIndex(uint index)\r\n        external\r\n        view\r\n        returns (bytes32)\r\n    {\r\n        return ownedItemHash[index];\r\n    }\r\n\r\n    function getItemByHash(bytes32 ItemHash)\r\n        external\r\n        view\r\n        returns (Item memory)\r\n    {\r\n        return ownedItems[ItemHash];\r\n    }\r\n\r\n    function getContractOwner() \r\n        public\r\n        view\r\n        returns (address)\r\n    {\r\n        return owner;\r\n    }\r\n\r\n    function setContractOwner(address newOwner) private {\r\n        owner = payable(newOwner);\r\n    }\r\n\r\n    function isItemCreated(bytes32 itemHash)\r\n        private\r\n        view\r\n        returns (bool)\r\n    {\r\n        return ownedItems[itemHash].owner != 0x0000000000000000000000000000000000000000;\r\n    }\r\n\r\n    function hasItemOwnership(bytes32 ItemHash)\r\n        private\r\n        view\r\n        returns (bool)\r\n    {\r\n        return ownedItems[ItemHash].owner == msg.sender;\r\n    }\r\n\r\n}",
  "sourcePath": "D:\\Major\\marketplace-eth\\contracts\\itemMarketplace.sol",
  "compiler": {
    "name": "solc",
    "version": "0.8.9+commit.e5eed63a.Emscripten.clang"
  },
  "schemaVersion": "3.4.3",
  "updatedAt": "2022-05-17T07:46:43.283Z",
  "networkType": "ethereum",
  "devdoc": {
    "kind": "dev",
    "methods": {},
    "version": 1
  },
  "userdoc": {
    "errors": {
      "InvalidState()": [
        {
          "notice": "Course has invalid state!"
        }
      ],
      "ItemHasOwner()": [
        {
          "notice": "This item has already been purchased."
        }
      ],
      "ItemIsNotCreated()": [
        {
          "notice": "Course is not created!"
        }
      ],
      "OnlyOwner()": [
        {
          "notice": "Only the owner has access to this method."
        }
      ],
      "SenderIsNotItemOwner()": [
        {
          "notice": "Sender is not Item Owner."
        }
      ]
    },
    "kind": "user",
    "methods": {},
    "version": 1
  }
}