{
  "contractName": "ItemMarketPlace",
  "abi": [
    {
      "inputs": [],
      "stateMutability": "nonpayable",
      "type": "constructor"
    },
    {
      "inputs": [],
      "name": "InvalidState",
      "type": "error"
    },
    {
      "inputs": [],
      "name": "ItemHasOwner",
      "type": "error"
    },
    {
      "inputs": [],
      "name": "ItemIsNotCreated",
      "type": "error"
    },
    {
      "inputs": [],
      "name": "OnlyOwner",
      "type": "error"
    },
    {
      "inputs": [],
      "name": "SenderIsNotItemOwner",
      "type": "error"
    },
    {
      "inputs": [],
      "name": "terminated",
      "outputs": [
        {
          "internalType": "bool",
          "name": "",
          "type": "bool"
        }
      ],
      "stateMutability": "view",
      "type": "function",
      "constant": true
    },
    {
      "stateMutability": "payable",
      "type": "receive",
      "payable": true
    },
    {
      "inputs": [
        {
          "internalType": "uint256",
          "name": "amount",
          "type": "uint256"
        }
      ],
      "name": "withdraw",
      "outputs": [],
      "stateMutability": "nonpayable",
      "type": "function"
    },
    {
      "inputs": [],
      "name": "emergencyWithdraw",
      "outputs": [],
      "stateMutability": "nonpayable",
      "type": "function"
    },
    {
      "inputs": [],
      "name": "selfDestruct",
      "outputs": [],
      "stateMutability": "nonpayable",
      "type": "function"
    },
    {
      "inputs": [],
      "name": "terminateContract",
      "outputs": [],
      "stateMutability": "nonpayable",
      "type": "function"
    },
    {
      "inputs": [],
      "name": "resumeContract",
      "outputs": [],
      "stateMutability": "nonpayable",
      "type": "function"
    },
    {
      "inputs": [
        {
          "internalType": "bytes16",
          "name": "ItemId",
          "type": "bytes16"
        },
        {
          "internalType": "bytes32",
          "name": "proof",
          "type": "bytes32"
        }
      ],
      "name": "purchaseItem",
      "outputs": [],
      "stateMutability": "payable",
      "type": "function",
      "payable": true
    },
    {
      "inputs": [
        {
          "internalType": "uint256",
          "name": "duration",
          "type": "uint256"
        },
        {
          "internalType": "uint256",
          "name": "interest",
          "type": "uint256"
        },
        {
          "internalType": "bytes32",
          "name": "proof",
          "type": "bytes32"
        }
      ],
      "name": "createRequest",
      "outputs": [],
      "stateMutability": "payable",
      "type": "function",
      "payable": true
    },
    {
      "inputs": [],
      "name": "getRequestCount",
      "outputs": [
        {
          "internalType": "uint256",
          "name": "",
          "type": "uint256"
        }
      ],
      "stateMutability": "view",
      "type": "function",
      "constant": true
    },
    {
      "inputs": [
        {
          "internalType": "uint256",
          "name": "index",
          "type": "uint256"
        }
      ],
      "name": "getRequestByIndex",
      "outputs": [
        {
          "components": [
            {
              "internalType": "uint256",
              "name": "id",
              "type": "uint256"
            },
            {
              "internalType": "uint256",
              "name": "price",
              "type": "uint256"
            },
            {
              "internalType": "uint256",
              "name": "duration",
              "type": "uint256"
            },
            {
              "internalType": "uint256",
              "name": "interest",
              "type": "uint256"
            },
            {
              "internalType": "enum ItemMarketPlace.reqState",
              "name": "state",
              "type": "uint8"
            },
            {
              "internalType": "bytes32",
              "name": "proof",
              "type": "bytes32"
            },
            {
              "internalType": "address",
              "name": "owner",
              "type": "address"
            },
            {
              "internalType": "uint256",
              "name": "timestamp",
              "type": "uint256"
            }
          ],
          "internalType": "struct ItemMarketPlace.Request",
          "name": "",
          "type": "tuple"
        }
      ],
      "stateMutability": "view",
      "type": "function",
      "constant": true
    },
    {
      "inputs": [
        {
          "internalType": "bytes32",
          "name": "itemHash",
          "type": "bytes32"
        }
      ],
      "name": "repurchaseItem",
      "outputs": [],
      "stateMutability": "payable",
      "type": "function",
      "payable": true
    },
    {
      "inputs": [
        {
          "internalType": "bytes32",
          "name": "itemHash",
          "type": "bytes32"
        }
      ],
      "name": "deActivateItem",
      "outputs": [],
      "stateMutability": "nonpayable",
      "type": "function"
    },
    {
      "inputs": [
        {
          "internalType": "bytes32",
          "name": "itemHash",
          "type": "bytes32"
        }
      ],
      "name": "activateItem",
      "outputs": [],
      "stateMutability": "nonpayable",
      "type": "function"
    },
    {
      "inputs": [
        {
          "internalType": "address",
          "name": "newOwner",
          "type": "address"
        }
      ],
      "name": "transferOwnership",
      "outputs": [],
      "stateMutability": "nonpayable",
      "type": "function"
    },
    {
      "inputs": [],
      "name": "getItemCount",
      "outputs": [
        {
          "internalType": "uint256",
          "name": "",
          "type": "uint256"
        }
      ],
      "stateMutability": "view",
      "type": "function",
      "constant": true
    },
    {
      "inputs": [
        {
          "internalType": "uint256",
          "name": "index",
          "type": "uint256"
        }
      ],
      "name": "getItemHashAtIndex",
      "outputs": [
        {
          "internalType": "bytes32",
          "name": "",
          "type": "bytes32"
        }
      ],
      "stateMutability": "view",
      "type": "function",
      "constant": true
    },
    {
      "inputs": [
        {
          "internalType": "bytes32",
          "name": "ItemHash",
          "type": "bytes32"
        }
      ],
      "name": "getItemByHash",
      "outputs": [
        {
          "components": [
            {
              "internalType": "uint256",
              "name": "id",
              "type": "uint256"
            },
            {
              "internalType": "uint256",
              "name": "price",
              "type": "uint256"
            },
            {
              "internalType": "bytes32",
              "name": "proof",
              "type": "bytes32"
            },
            {
              "internalType": "address",
              "name": "owner",
              "type": "address"
            },
            {
              "internalType": "enum ItemMarketPlace.State",
              "name": "state",
              "type": "uint8"
            }
          ],
          "internalType": "struct ItemMarketPlace.Item",
          "name": "",
          "type": "tuple"
        }
      ],
      "stateMutability": "view",
      "type": "function",
      "constant": true
    },
    {
      "inputs": [],
      "name": "getContractOwner",
      "outputs": [
        {
          "internalType": "address",
          "name": "",
          "type": "address"
        }
      ],
      "stateMutability": "view",
      "type": "function",
      "constant": true
    }
  ],
  "bytecode": "0x608060405260008060006101000a81548160ff02191690831515021790555034801561002a57600080fd5b5061003a3361003f60201b60201c565b610083565b80600660006101000a81548173ffffffffffffffffffffffffffffffffffffffff021916908373ffffffffffffffffffffffffffffffffffffffff16021790555050565b611cb0806100926000396000f3fe60806040526004361061010d5760003560e01c80638963c7d311610095578063c4bc5da511610064578063c4bc5da514610320578063d5e7cbb714610337578063db2e21bc14610374578063f2fde38b1461038b578063f89df7ff146103b457610114565b80638963c7d31461029b5780639cb8a26a146102b7578063acc5e276146102ce578063c1fb1caf146102f757610114565b80633fad1834116100dc5780633fad1834146101c1578063442890d5146101ec578063592f9006146102175780636d052b37146102335780637749cf231461027057610114565b8063194307bf14610119578063234780a7146101445780632e1a7d4d146101815780632fd949ca146101aa57610114565b3661011457005b600080fd5b34801561012557600080fd5b5061012e6103d0565b60405161013b9190611537565b60405180910390f35b34801561015057600080fd5b5061016b6004803603810190610166919061158d565b6103e1565b6040516101789190611702565b60405180910390f35b34801561018d57600080fd5b506101a860048036038101906101a39190611749565b6104bd565b005b3480156101b657600080fd5b506101bf6105fb565b005b3480156101cd57600080fd5b506101d6610683565b6040516101e39190611785565b60405180910390f35b3480156101f857600080fd5b5061020161068d565b60405161020e91906117af565b60405180910390f35b610231600480360381019061022c9190611822565b6106b7565b005b34801561023f57600080fd5b5061025a60048036038101906102559190611749565b610870565b604051610267919061194c565b60405180910390f35b34801561027c57600080fd5b5061028561096b565b6040516102929190611785565b60405180910390f35b6102b560048036038101906102b09190611968565b610975565b005b3480156102c357600080fd5b506102cc610ada565b005b3480156102da57600080fd5b506102f560048036038101906102f0919061158d565b610b98565b005b34801561030357600080fd5b5061031e6004803603810190610319919061158d565b610d12565b005b34801561032c57600080fd5b50610335610f6b565b005b34801561034357600080fd5b5061035e60048036038101906103599190611749565b610ff3565b60405161036b91906119ca565b60405180910390f35b34801561038057600080fd5b50610389611010565b005b34801561039757600080fd5b506103b260048036038101906103ad9190611a11565b611164565b005b6103ce60048036038101906103c9919061158d565b6111dc565b005b60008054906101000a900460ff1681565b6103e9611452565b600160008381526020019081526020016000206040518060a00160405290816000820154815260200160018201548152602001600282015481526020016003820160009054906101000a900473ffffffffffffffffffffffffffffffffffffffff1673ffffffffffffffffffffffffffffffffffffffff1673ffffffffffffffffffffffffffffffffffffffff1681526020016003820160149054906101000a900460ff1660028111156104a05761049f611623565b5b60028111156104b2576104b1611623565b5b815250509050919050565b6104c561068d565b73ffffffffffffffffffffffffffffffffffffffff163373ffffffffffffffffffffffffffffffffffffffff1614610529576040517f5fc483c500000000000000000000000000000000000000000000000000000000815260040160405180910390fd5b6000600660009054906101000a900473ffffffffffffffffffffffffffffffffffffffff1673ffffffffffffffffffffffffffffffffffffffff168260405161057190611a6f565b60006040518083038185875af1925050503d80600081146105ae576040519150601f19603f3d011682016040523d82523d6000602084013e6105b3565b606091505b50509050806105f7576040517f08c379a00000000000000000000000000000000000000000000000000000000081526004016105ee90611ae1565b60405180910390fd5b5050565b61060361068d565b73ffffffffffffffffffffffffffffffffffffffff163373ffffffffffffffffffffffffffffffffffffffff1614610667576040517f5fc483c500000000000000000000000000000000000000000000000000000000815260040160405180910390fd5b60016000806101000a81548160ff021916908315150217905550565b6000600554905090565b6000600660009054906101000a900473ffffffffffffffffffffffffffffffffffffffff16905090565b60008054906101000a900460ff16156106cf57600080fd5b600082336040516020016106e4929190611b6a565b60405160208183030381529060405280519060200120905061070581611331565b1561073c576040517f2ac1a44e00000000000000000000000000000000000000000000000000000000815260040160405180910390fd5b60006004600081548092919061075190611bc5565b9190505590508160026000838152602001908152602001600020819055506040518060a001604052808281526020013481526020018481526020013373ffffffffffffffffffffffffffffffffffffffff168152602001600060028111156107bc576107bb611623565b5b8152506001600084815260200190815260200160002060008201518160000155602082015181600101556040820151816002015560608201518160030160006101000a81548173ffffffffffffffffffffffffffffffffffffffff021916908373ffffffffffffffffffffffffffffffffffffffff16021790555060808201518160030160146101000a81548160ff0219169083600281111561086257610861611623565b5b021790555090505050505050565b6108786114ac565b6003600083815260200190815260200160002060405180610100016040529081600082015481526020016001820154815260200160028201548152602001600382015481526020016004820160009054906101000a900460ff1660028111156108e4576108e3611623565b5b60028111156108f6576108f5611623565b5b8152602001600582015481526020016006820160009054906101000a900473ffffffffffffffffffffffffffffffffffffffff1673ffffffffffffffffffffffffffffffffffffffff1673ffffffffffffffffffffffffffffffffffffffff1681526020016007820154815250509050919050565b6000600454905090565b60008054906101000a900460ff161561098d57600080fd5b6000600560008154809291906109a290611bc5565b919050559050604051806101000160405280828152602001348152602001858152602001848152602001600060028111156109e0576109df611623565b5b81526020018381526020013373ffffffffffffffffffffffffffffffffffffffff16815260200142815250600360008381526020019081526020016000206000820151816000015560208201518160010155604082015181600201556060820151816003015560808201518160040160006101000a81548160ff02191690836002811115610a7157610a70611623565b5b021790555060a0820151816005015560c08201518160060160006101000a81548173ffffffffffffffffffffffffffffffffffffffff021916908373ffffffffffffffffffffffffffffffffffffffff16021790555060e0820151816007015590505050505050565b60008054906101000a900460ff16610af157600080fd5b610af961068d565b73ffffffffffffffffffffffffffffffffffffffff163373ffffffffffffffffffffffffffffffffffffffff1614610b5d576040517f5fc483c500000000000000000000000000000000000000000000000000000000815260040160405180910390fd5b600660009054906101000a900473ffffffffffffffffffffffffffffffffffffffff1673ffffffffffffffffffffffffffffffffffffffff16ff5b610ba061068d565b73ffffffffffffffffffffffffffffffffffffffff163373ffffffffffffffffffffffffffffffffffffffff1614610c04576040517f5fc483c500000000000000000000000000000000000000000000000000000000815260040160405180910390fd5b60008054906101000a900460ff1615610c1c57600080fd5b610c258161139f565b610c5b576040517feff99ffe00000000000000000000000000000000000000000000000000000000815260040160405180910390fd5b600060016000838152602001908152602001600020905060006002811115610c8657610c85611623565b5b8160030160149054906101000a900460ff166002811115610caa57610ca9611623565b5b14610ce1576040517fbaf3f0f700000000000000000000000000000000000000000000000000000000815260040160405180910390fd5b60018160030160146101000a81548160ff02191690836002811115610d0957610d08611623565b5b02179055505050565b610d1a61068d565b73ffffffffffffffffffffffffffffffffffffffff163373ffffffffffffffffffffffffffffffffffffffff1614610d7e576040517f5fc483c500000000000000000000000000000000000000000000000000000000815260040160405180910390fd5b60008054906101000a900460ff1615610d9657600080fd5b610d9f8161139f565b610dd5576040517feff99ffe00000000000000000000000000000000000000000000000000000000815260040160405180910390fd5b600060016000838152602001908152602001600020905060006002811115610e0057610dff611623565b5b8160030160149054906101000a900460ff166002811115610e2457610e23611623565b5b14610e5b576040517fbaf3f0f700000000000000000000000000000000000000000000000000000000815260040160405180910390fd5b60008160030160009054906101000a900473ffffffffffffffffffffffffffffffffffffffff1673ffffffffffffffffffffffffffffffffffffffff168260010154604051610ea990611a6f565b60006040518083038185875af1925050503d8060008114610ee6576040519150601f19603f3d011682016040523d82523d6000602084013e610eeb565b606091505b5050905080610f2f576040517f08c379a0000000000000000000000000000000000000000000000000000000008152600401610f2690611c5a565b60405180910390fd5b60028260030160146101000a81548160ff02191690836002811115610f5757610f56611623565b5b021790555060008260010181905550505050565b610f7361068d565b73ffffffffffffffffffffffffffffffffffffffff163373ffffffffffffffffffffffffffffffffffffffff1614610fd7576040517f5fc483c500000000000000000000000000000000000000000000000000000000815260040160405180910390fd5b60008060006101000a81548160ff021916908315150217905550565b600060026000838152602001908152602001600020549050919050565b61101861068d565b73ffffffffffffffffffffffffffffffffffffffff163373ffffffffffffffffffffffffffffffffffffffff161461107c576040517f5fc483c500000000000000000000000000000000000000000000000000000000815260040160405180910390fd5b60008054906101000a900460ff1661109357600080fd5b6000600660009054906101000a900473ffffffffffffffffffffffffffffffffffffffff1673ffffffffffffffffffffffffffffffffffffffff16476040516110db90611a6f565b60006040518083038185875af1925050503d8060008114611118576040519150601f19603f3d011682016040523d82523d6000602084013e61111d565b606091505b5050905080611161576040517f08c379a000000000000000000000000000000000000000000000000000000000815260040161115890611ae1565b60405180910390fd5b50565b61116c61068d565b73ffffffffffffffffffffffffffffffffffffffff163373ffffffffffffffffffffffffffffffffffffffff16146111d0576040517f5fc483c500000000000000000000000000000000000000000000000000000000815260040160405180910390fd5b6111d98161140e565b50565b60008054906101000a900460ff16156111f457600080fd5b6111fd8161139f565b611233576040517feff99ffe00000000000000000000000000000000000000000000000000000000815260040160405180910390fd5b61123c81611331565b611272576040517f97b09ac800000000000000000000000000000000000000000000000000000000815260040160405180910390fd5b600060016000838152602001908152602001600020905060028081111561129c5761129b611623565b5b8160030160149054906101000a900460ff1660028111156112c0576112bf611623565b5b146112f7576040517fbaf3f0f700000000000000000000000000000000000000000000000000000000815260040160405180910390fd5b60008160030160146101000a81548160ff0219169083600281111561131f5761131e611623565b5b02179055503481600101819055505050565b60003373ffffffffffffffffffffffffffffffffffffffff166001600084815260200190815260200160002060030160009054906101000a900473ffffffffffffffffffffffffffffffffffffffff1673ffffffffffffffffffffffffffffffffffffffff16149050919050565b60008073ffffffffffffffffffffffffffffffffffffffff166001600084815260200190815260200160002060030160009054906101000a900473ffffffffffffffffffffffffffffffffffffffff1673ffffffffffffffffffffffffffffffffffffffff1614159050919050565b80600660006101000a81548173ffffffffffffffffffffffffffffffffffffffff021916908373ffffffffffffffffffffffffffffffffffffffff16021790555050565b6040518060a00160405280600081526020016000815260200160008019168152602001600073ffffffffffffffffffffffffffffffffffffffff168152602001600060028111156114a6576114a5611623565b5b81525090565b60405180610100016040528060008152602001600081526020016000815260200160008152602001600060028111156114e8576114e7611623565b5b815260200160008019168152602001600073ffffffffffffffffffffffffffffffffffffffff168152602001600081525090565b60008115159050919050565b6115318161151c565b82525050565b600060208201905061154c6000830184611528565b92915050565b600080fd5b6000819050919050565b61156a81611557565b811461157557600080fd5b50565b60008135905061158781611561565b92915050565b6000602082840312156115a3576115a2611552565b5b60006115b184828501611578565b91505092915050565b6000819050919050565b6115cd816115ba565b82525050565b6115dc81611557565b82525050565b600073ffffffffffffffffffffffffffffffffffffffff82169050919050565b600061160d826115e2565b9050919050565b61161d81611602565b82525050565b7f4e487b7100000000000000000000000000000000000000000000000000000000600052602160045260246000fd5b6003811061166357611662611623565b5b50565b600081905061167482611652565b919050565b600061168482611666565b9050919050565b61169481611679565b82525050565b60a0820160008201516116b060008501826115c4565b5060208201516116c360208501826115c4565b5060408201516116d660408501826115d3565b5060608201516116e96060850182611614565b5060808201516116fc608085018261168b565b50505050565b600060a082019050611717600083018461169a565b92915050565b611726816115ba565b811461173157600080fd5b50565b6000813590506117438161171d565b92915050565b60006020828403121561175f5761175e611552565b5b600061176d84828501611734565b91505092915050565b61177f816115ba565b82525050565b600060208201905061179a6000830184611776565b92915050565b6117a981611602565b82525050565b60006020820190506117c460008301846117a0565b92915050565b60007fffffffffffffffffffffffffffffffff0000000000000000000000000000000082169050919050565b6117ff816117ca565b811461180a57600080fd5b50565b60008135905061181c816117f6565b92915050565b6000806040838503121561183957611838611552565b5b60006118478582860161180d565b925050602061185885828601611578565b9150509250929050565b6003811061187357611872611623565b5b50565b600081905061188482611862565b919050565b600061189482611876565b9050919050565b6118a481611889565b82525050565b610100820160008201516118c160008501826115c4565b5060208201516118d460208501826115c4565b5060408201516118e760408501826115c4565b5060608201516118fa60608501826115c4565b50608082015161190d608085018261189b565b5060a082015161192060a08501826115d3565b5060c082015161193360c0850182611614565b5060e082015161194660e08501826115c4565b50505050565b60006101008201905061196260008301846118aa565b92915050565b60008060006060848603121561198157611980611552565b5b600061198f86828701611734565b93505060206119a086828701611734565b92505060406119b186828701611578565b9150509250925092565b6119c481611557565b82525050565b60006020820190506119df60008301846119bb565b92915050565b6119ee81611602565b81146119f957600080fd5b50565b600081359050611a0b816119e5565b92915050565b600060208284031215611a2757611a26611552565b5b6000611a35848285016119fc565b91505092915050565b600081905092915050565b50565b6000611a59600083611a3e565b9150611a6482611a49565b600082019050919050565b6000611a7a82611a4c565b9150819050919050565b600082825260208201905092915050565b7f5472616e73666572206661696c65640000000000000000000000000000000000600082015250565b6000611acb600f83611a84565b9150611ad682611a95565b602082019050919050565b60006020820190508181036000830152611afa81611abe565b9050919050565b6000819050919050565b611b1c611b17826117ca565b611b01565b82525050565b60008160601b9050919050565b6000611b3a82611b22565b9050919050565b6000611b4c82611b2f565b9050919050565b611b64611b5f82611602565b611b41565b82525050565b6000611b768285611b0b565b601082019150611b868284611b53565b6014820191508190509392505050565b7f4e487b7100000000000000000000000000000000000000000000000000000000600052601160045260246000fd5b6000611bd0826115ba565b91507fffffffffffffffffffffffffffffffffffffffffffffffffffffffffffffffff821415611c0357611c02611b96565b5b600182019050919050565b7f5472616e73666572204661696c65640000000000000000000000000000000000600082015250565b6000611c44600f83611a84565b9150611c4f82611c0e565b602082019050919050565b60006020820190508181036000830152611c7381611c37565b905091905056fea2646970667358221220583dc43c107389ee0d122c307b6c7163d9cd79399b4ce6c2595f7ac01bea6dd864736f6c63430008090033",
  "immutableReferences": {},
  "source": "// SPDX-License-Identifier: MIT\r\npragma solidity >=0.4.22 <0.9.0;\r\n\r\ncontract ItemMarketPlace {\r\n    enum State {\r\n        Purchased,\r\n        Activated,\r\n        Deactivated\r\n    }\r\n\r\n    enum reqState {\r\n        Active,\r\n        Accepted,\r\n        Completed\r\n    }\r\n\r\n    struct Item {\r\n        uint id;\r\n        uint price;\r\n        bytes32 proof;\r\n        address owner;\r\n        State state;\r\n    } \r\n\r\n    struct Request {\r\n        uint id;\r\n        uint price;\r\n        uint duration;\r\n        uint interest;\r\n        reqState state;\r\n        bytes32 proof;\r\n        address owner;\r\n        uint256 timestamp;\r\n    }\r\n\r\n    bool public terminated = false;\r\n\r\n    mapping(bytes32 => Item) private ownedItems; //ItemHash => Item Data\r\n    mapping(uint => bytes32) private ownedItemHash; //ItemID => ItemHash\r\n\r\n    mapping(uint => Request) private requests; //RequestHash => Request Data\r\n\r\n    uint private totalOwnedItems;\r\n    uint private totalRequests;\r\n\r\n    address payable private owner;\r\n\r\n    constructor() {\r\n        setContractOwner(msg.sender);\r\n    }\r\n\r\n    /// Course has invalid state!\r\n    error InvalidState();\r\n\r\n    /// Course is not created!\r\n    error ItemIsNotCreated();\r\n\r\n    /// This item has already been purchased.\r\n    error ItemHasOwner();\r\n\r\n    /// Sender is not Item Owner.\r\n    error SenderIsNotItemOwner();\r\n\r\n    /// Only the owner has access to this method.\r\n    error OnlyOwner();\r\n\r\n    modifier onlyOwner() {\r\n        if(msg.sender != getContractOwner()){\r\n            revert OnlyOwner();\r\n        }\r\n        _;\r\n    }\r\n\r\n    modifier onlyWhenNotTerminated {\r\n        require(!terminated);\r\n        _;\r\n    }\r\n\r\n    modifier onlyWhenTerminated {\r\n        require(terminated);\r\n        _;\r\n    }\r\n\r\n    receive() external payable {}\r\n\r\n    function withdraw(uint amount)\r\n        external\r\n        onlyOwner\r\n    {\r\n        (bool success, ) = owner.call{value: amount}(\"\");\r\n        require(success, \"Transfer failed\");\r\n    }\r\n\r\n    function emergencyWithdraw()\r\n        external\r\n        onlyOwner\r\n        onlyWhenTerminated\r\n    {\r\n        (bool success, ) = owner.call{value: address(this).balance}(\"\");\r\n        require(success, \"Transfer failed\");\r\n    }\r\n\r\n    function selfDestruct()\r\n        external\r\n        onlyWhenTerminated\r\n        onlyOwner\r\n    {\r\n        selfdestruct(owner);\r\n    }\r\n\r\n    function terminateContract()\r\n        external\r\n        onlyOwner\r\n    {\r\n        terminated = true;\r\n    }\r\n\r\n    function resumeContract() \r\n        external\r\n        onlyOwner\r\n    {\r\n        terminated = false;\r\n    }\r\n        \r\n\r\n    function purchaseItem(\r\n        bytes16 ItemId,\r\n        bytes32 proof)\r\n        external\r\n        payable\r\n        onlyWhenNotTerminated\r\n    {\r\n        bytes32 ItemHash = keccak256(abi.encodePacked(ItemId, msg.sender));\r\n        if(hasItemOwnership(ItemHash)) {\r\n            revert ItemHasOwner();\r\n        }\r\n        uint id = totalOwnedItems++;\r\n        ownedItemHash[id] = ItemHash;\r\n        ownedItems[ItemHash] = Item({id: id, price: msg.value, proof: proof, owner: msg.sender, state: State.Purchased});\r\n    }\r\n\r\n    function createRequest(\r\n        uint duration,\r\n        uint interest,\r\n        bytes32 proof\r\n    )\r\n        external\r\n        payable\r\n        onlyWhenNotTerminated\r\n    {\r\n        uint id = totalRequests++;\r\n        requests[id] = Request({id: id, price: msg.value, proof: proof, owner: msg.sender, state: reqState.Active, duration: duration, interest: interest, timestamp: block.timestamp});\r\n    }\r\n\r\n    function getRequestCount()\r\n        external\r\n        view\r\n        returns (uint)\r\n    {\r\n        return totalRequests;\r\n    }\r\n\r\n    function getRequestByIndex(uint index)\r\n        external\r\n        view\r\n        returns (Request memory)\r\n    {\r\n        return requests[index];\r\n    }\r\n\r\n    function repurchaseItem(bytes32 itemHash) \r\n        external\r\n        payable\r\n        onlyWhenNotTerminated\r\n    {\r\n        if (!isItemCreated(itemHash)){\r\n            revert ItemIsNotCreated();\r\n        }\r\n\r\n        if (!hasItemOwnership(itemHash)){\r\n            revert SenderIsNotItemOwner();\r\n        }\r\n\r\n        Item storage item = ownedItems[itemHash];\r\n\r\n        if (item.state != State.Deactivated){\r\n            revert InvalidState();\r\n        }\r\n\r\n        item.state = State.Purchased;\r\n        item.price = msg.value;\r\n    }\r\n\r\n    function deActivateItem(bytes32 itemHash)\r\n        external\r\n        onlyOwner\r\n        onlyWhenNotTerminated\r\n    {\r\n        if (!isItemCreated(itemHash)) {\r\n        revert ItemIsNotCreated();\r\n        }\r\n\r\n        Item storage item = ownedItems[itemHash];\r\n\r\n        if (item.state != State.Purchased) {\r\n        revert InvalidState();\r\n        }\r\n\r\n        (bool success, ) = item.owner.call{value: item.price}(\"\");\r\n        require(success, \"Transfer Failed\");\r\n\r\n        item.state = State.Deactivated;\r\n        item.price = 0;\r\n    }\r\n\r\n    function activateItem(bytes32 itemHash)\r\n        external\r\n        onlyOwner\r\n        onlyWhenNotTerminated\r\n    {\r\n        if (!isItemCreated(itemHash)) {\r\n        revert ItemIsNotCreated();\r\n        }\r\n\r\n        Item storage item = ownedItems[itemHash];\r\n\r\n        if (item.state != State.Purchased) {\r\n        revert InvalidState();\r\n        }\r\n\r\n        item.state = State.Activated;\r\n    }\r\n\r\n    function transferOwnership(address newOwner) \r\n        external\r\n        onlyOwner\r\n    {\r\n        setContractOwner(newOwner);\r\n    }\r\n\r\n    function getItemCount()\r\n        external\r\n        view\r\n        returns (uint)\r\n    {\r\n        return totalOwnedItems;\r\n    }\r\n\r\n    function getItemHashAtIndex(uint index)\r\n        external\r\n        view\r\n        returns (bytes32)\r\n    {\r\n        return ownedItemHash[index];\r\n    }\r\n\r\n    function getItemByHash(bytes32 ItemHash)\r\n        external\r\n        view\r\n        returns (Item memory)\r\n    {\r\n        return ownedItems[ItemHash];\r\n    }\r\n\r\n    function getContractOwner() \r\n        public\r\n        view\r\n        returns (address)\r\n    {\r\n        return owner;\r\n    }\r\n\r\n    function setContractOwner(address newOwner) private {\r\n        owner = payable(newOwner);\r\n    }\r\n\r\n    function isItemCreated(bytes32 itemHash)\r\n        private\r\n        view\r\n        returns (bool)\r\n    {\r\n        return ownedItems[itemHash].owner != 0x0000000000000000000000000000000000000000;\r\n    }\r\n\r\n    function hasItemOwnership(bytes32 ItemHash)\r\n        private\r\n        view\r\n        returns (bool)\r\n    {\r\n        return ownedItems[ItemHash].owner == msg.sender;\r\n    }\r\n\r\n}",
  "sourcePath": "D:\\Major\\marketplace-eth\\contracts\\itemMarketplace.sol",
  "compiler": {
    "name": "solc",
    "version": "0.8.9+commit.e5eed63a.Emscripten.clang"
  },
  "schemaVersion": "3.4.3",
  "updatedAt": "2022-05-17T21:14:58.701Z",
  "networkType": "ethereum",
  "devdoc": {
    "kind": "dev",
    "methods": {},
    "version": 1
  },
  "userdoc": {
    "errors": {
      "InvalidState()": [
        {
          "notice": "Course has invalid state!"
        }
      ],
      "ItemHasOwner()": [
        {
          "notice": "This item has already been purchased."
        }
      ],
      "ItemIsNotCreated()": [
        {
          "notice": "Course is not created!"
        }
      ],
      "OnlyOwner()": [
        {
          "notice": "Only the owner has access to this method."
        }
      ],
      "SenderIsNotItemOwner()": [
        {
          "notice": "Sender is not Item Owner."
        }
      ]
    },
    "kind": "user",
    "methods": {},
    "version": 1
  }
}